:0B0026007FF57E001200317FF57E00A8
:0A003100EF1F70011E144E70F7223D
:10000300AD07AC06ED1DAE0470011C4E6008120076
:070013002612002680EE22F8
:0E02210001120001140002100000021500007E
:10021100C2B5C2AC8F993099FDC299D2ACD2B52288
:10020000E4F5AF8F9BE59A30E1FB539AFD75AF01A2
:0102100022CB
:030023000201884F
:10018800C0E0C083C082C0D075D008309827C2981C
:10019800E51470260516E516AE157002051514242B
:1001A800ECF58274033EF583E599F0E599B4FE0A0F
:1001B8007514018005309902C299D0D0D082D083BD
:0301C800D0E03252
:0300430002013F78
:10013F00C0E0C083C082C0D075D008E59A30E028F7
:10014F00539AFEE51270290511E511AE10700205E4
:10015F0010142400F58274003EF583E59BF0E59BB7
:10016F00B4FE0D7512018008E59A30E103539AFD34
:09017F00D0D0D082D083D0E03250
:1001CB00E4F5B175B220D2B5759850438E40538E7D
:1001DB00FE53890F758BE0758DFEC2ABD28ED2AC00
:1001EB00759A50438E0475D7E075D6FE438E107505
:0501FB00AF01D2AF22AC
:1000D2001201CBC2A0C2A1C2B3C2B4E512640170C4
:1000E2002AB2A0FCFDC3ED9511EC951050167400D8
:1000F2002DF58274003CF583E0FF1202110DBD0064
:10010200010C80E1E4F510F511F512E514B401CB10
:10011200E4FCFDC3ED9516EC9515501674EC2DF527
:100122008274033CF583E0FF1202000DBD00010C56
:0D01320080E1B2A1E4F515F516F514809EEC
:03000000020046B5
:0C004600787FE4F6D8FD75811902008D6A
:100052000200D2E493A3F8E493A34003F68001F2F2
:1000620008DFF48029E493A3F85407240CC8C333AF
:10007200C4540F4420C8834004F456800146F6DF7E
:10008200E4800B0102040810204080900221E47EEB
:10009200019360BCA3FF543F30E509541FFEE49373
:1000A200A360010ECF54C025E060A840B8E493A33A
:1000B200FAE493A3F8E493A3C8C582C8CAC583CA65
:1000C200F0A3C8C582C8CAC583CADFE9DEE780BE1D
:01022F0000CE
:00000001FF
