:1002D800C100C101C102C103C105C104C106013386
:1002E80000052601020304050521000000000003A3
:1002F8002F00000005380909090909023600000223
:07030800340002022D000287
:10029000300144C201752D07752ED0C2A1E52E157F
:1002A0002E7002152D14D39402E52D9400401EE407
:1002B000F53DD290053DE53DD3949640F5E4F53DFE
:1002C000E53DD3949650D6C290053D80F3752D0040
:0802D000752E02C290D2A1229A
:10046800E4F521F522F523F524752505F52FF5305A
:0404780075310522B3
:0D048E00C296D295C2947F147E0002043CF9
:03000B00020402EA
:10040200C0E0C0D075D008758C4C758AD0AF32056B
:1004120032EFC394644005753200D203D0D0D0E0ED
:0104220032A7
:1003DE00E4F591759201759501759608C290120417
:1003EE008E120468438901758C4C758AD0D2A9D2BD
:0403FE008CD2AF22CC
:10000E001203DE75AAFF75AB8775870200007B00B1
:10001E007A0079387D051203187F057E0012043CA4
:10002E007F0712049B8F4AE54A30E644B2A17B005B
:10003E007A0079367514027F611203567FE212043C
:10004E00237DFF7F271203CDE536B40104B2A1D282
:10005E0004852C2F75140075150075162F75170352
:10006E007B007A0079267D05120195E4F52FF52C9B
:10007E0030045EC2047B007A0079217D05120318DC
:10008E0075870200007F0712049B8F4AE54A30E60F
:10009E00217B007A0079367514027F611203567F38
:1000AE00E21204237DFF7F271203CDE536B4010251
:1000BE00D201852C2F75140075150075162F751726
:1000CE00037B007A0079267D05120195E4F52FF564
:1000DE002C30A002D2057F017E0012043C12047C5B
:1000EE0030050A30A007C205D201432C01300605A7
:0B00FE00C206432C0212029002001701
:08030F0002480505024600004A
:10042300E4FEEF339293EF25E0FFD294A292E433FC
:080433004207C2940EBE08EA64
:01043B00229E
:1003B600C296E4FD7F211203CD7F241203CD7F2553
:0703C6001203CD7D077F2625
:1003CD00C295120423AC07AF05120423D295AF04D6
:0103DD0022FD
:0C049B00C295120423E4FF120423D29542
:0104A7002232
:060356008B118A128913CD
:10035C00C295120423AD07E4FCECC395145017E4CA
:10036C00FF120423AB11AA12A9138C82758300EF20
:0A037C0012026E0C80E3D295AF056B
:010386002254
:060387008B198A1A891B84
:10038D00C295120423AD07E4FCECC3951C5015ABCC
:10039D0019AA1AA91B8C82758300120241FF12043F
:0803AD00230C80E5D295AF0599
:0103B5002225
:10047C00C2967D0D7F201203CDD2967F647E000242
:02048C00045E0C
:100318008D101203B6C29685101C7F2A1203877DA2
:10032800027F311203CD1D7F221203CD1D7FE11202
:1003380003CD7FE21203CD7DFF7F271203CD7D3FE2
:0E0348007F201203CDD2967FC87E0002045E95
:1001ED008D411203B6C29685411C7F2A1203877D6D
:1001FD00027F311203CDAB42AA43A94485451C7F32
:10020D002B1203877D027F321203CD0D7F22120345
:10021D00CDE4FD7FE11203CD7FE21203CD7DFF7FA3
:10022D00271203CD7D3F7F201203CDD2967FC87E4E
:04023D000002045E59
:100195008B108A1189128D13C296D295C2947F1441
:1001A5007E0012045E7FE1120423E4FD7F21120329
:1001B500CD7F241203CD0D1203C4C296AB10AA1134
:1001C500A91285131C7F30120387AB14AA15A91633
:1001D50085171C7FA01203877D7E7F201203CDD259
:0801E500967FC87E0002045E53
:0B0453007FF57E0012045E7FF57E0046
:0A045E00EF1F70011E144E70F7220C
:10043C00AD07AC06ED1DAE0470011C4E6008120435
:07044C005312045380EE225D
:03000000020109F1
:0C010900787FE4F6D8FD75814A020150B1
:10024100BB010CE58229F582E5833AF583E0225072
:1002510006E92582F8E622BBFE06E92582F8E222BC
:0D026100E58229F582E5833AF583E49322D6
:10026E00F8BB010DE58229F582E5833AF583E8F0C6
:10027E00225006E92582C8F622BBFE05E92582C872
:02028E00F2225A
:1001150002000EE493A3F8E493A34003F68001F2F2
:1001250008DFF48029E493A3F85407240CC8C333EB
:10013500C4540F4420C8834004F456800146F6DFBA
:10014500E4800B01020408102040809002D8E47E70
:10015500019360BCA3FF543F30E509541FFEE493AF
:10016500A360010ECF54C025E060A840B8E493A376
:10017500FAE493A3F8E493A3C8C582C8CAC583CAA1
:10018500F0A3C8C582C8CAC583CADFE9DEE780BE59
:0103170000E5
:00000001FF
