:10030C00C100C101C102C103C105C104C106013351
:10031C00000526010203040505210000000000036E
:10032C002F000000053809090909090236000002EE
:07033C00340002022D000253
:03003300020003C5
:06000300D2065387DF3234
:1002C000300148C2AFC201752D07752ED0C2A1E51D
:1002D0002E152E7002152D14D39402E52D94004096
:1002E0001EE4F53DD290053DE53DD3949640F5E4FE
:1002F000F53DE53DD3949650D6C290053D80F3750B
:0C0300002D00752E02C290D2A1D2AF22B7
:10047800E4F521F522F523F52475250FF52FF53040
:0404880075310F2299
:0D049E00C296D295C2947F147E0002044CD9
:03000B0002000EE2
:10000E00C0E0C0D075D008758C4C758AD0AF320563
:10001E0032EFC394644005753200D203D0D0D0E0E5
:01002E00329F
:10041200E4F59175920175950175960875B108F527
:10042200B2C29012049E1204785387DFD2AED2AFCA
:0104320022A7
:1000360012041275AAFF75AB8775870200007B0054
:100046007A0079387D0512034C7F047E0012044C39
:100056007F071204AB8F4AE54A30E6497B007A00F7
:1000660079367514027F6112038A7FE21204337DAA
:10007600FF7F27120401E536B40104D2048007E5A8
:1000860036B40202D201852C2F7514007515007541
:10009600162F7517037B007A0079267D051201C598
:1000A600E4F52FF52C30045EC2047B007A0079213A
:1000B6007D0512034C75870200007F071204AB8F83
:1000C6004AE54A30E6217B007A0079367514027FCC
:1000D6006112038A7FE21204337DFF7F2712040137
:1000E600E536B40102D201852C2F75140075150072
:1000F60075162F7517037B007A0079267D05120188
:10010600C5E4F52FF52C30B305200102D2057F0199
:100116007E0012044C12048C30050A30B307C20567
:10012600D201432C01300605C206432C041202C03C
:0301360002003F85
:08034300024805050246000016
:10043300E4FEEF339293EF25E0FFD294A292E433EC
:080443004207C2940EBE08EA54
:01044B00228E
:1003EA00C296E4FD7F211204017F241204017F25B5
:0703FA001204017D077F26BC
:10040100C295120433AC07AF05120433D295AF0481
:0104110022C8
:0C04AB00C295120433E4FF120433D29512
:0104B7002222
:06038A008B118A12891399
:10039000C295120433AD07E4FCECC395145017E486
:1003A000FF120433AB11AA12A9138C82758300EFDC
:0A03B00012029E0C80E3D295AF0507
:0103BA002220
:0603BB008B198A1A891B50
:1003C100C295120433AD07E4FCECC3951C5015AB88
:1003D10019AA1AA91B8C82758300120271FF1204DB
:0803E100330C80E5D295AF0555
:0103E90022F1
:10048C00C2967D0D7F20120401D2967F647E0002FD
:02049C00046EEC
:10034C008D101203EAC29685101C7F2A1203BB7D06
:10035C00027F311204011D7F221204011D7FE11264
:10036C0004017FE21204017DFF7F271204017D3F0F
:0E037C007F20120401D2967FC87E0002046E1C
:10021D008D411203EAC29685411C7F2A1203BB7DD4
:10022D00027F31120401AB42AA43A94485451C7FCC
:10023D002B1203BB7D027F321204010D7F221204AB
:10024D0001E4FD7FE11204017FE21204017DFF7FD5
:10025D00271204017D3F7F20120401D2967FC87EB4
:04026D000002046E19
:1001C5008B108A1189128D13C296D295C2947F1411
:1001D5007E0012046E7FE1120433E4FD7F211204D8
:1001E500017F241204010D1203F8C296AB10AA1167
:1001F500A91285131C7F301203BBAB14AA15A916CF
:1002050085171C7FA01203BB7D7E7F20120401D2BF
:08021500967FC87E0002046E12
:0B0463007FF57E0012046E7FF57E0026
:0A046E00EF1F70011E144E70F722FC
:10044C00AD07AC06ED1DAE0470011C4E6008120425
:07045C006312046380EE222D
:03000000020139C1
:0C013900787FE4F6D8FD75814A02018051
:10027100BB010CE58229F582E5833AF583E0225042
:1002810006E92582F8E622BBFE06E92582F8E2228C
:0D029100E58229F582E5833AF583E49322A6
:10029E00F8BB010DE58229F582E5833AF583E8F096
:1002AE00225006E92582C8F622BBFE05E92582C842
:0202BE00F2222A
:10014500020036E493A3F8E493A34003F68001F29A
:1001550008DFF48029E493A3F85407240CC8C333BB
:10016500C4540F4420C8834004F456800146F6DF8A
:10017500E4800B010204081020408090030CE47E0B
:10018500019360BCA3FF543F30E509541FFEE4937F
:10019500A360010ECF54C025E060A840B8E493A346
:1001A500FAE493A3F8E493A3C8C582C8CAC583CA71
:1001B500F0A3C8C582C8CAC583CADFE9DEE780BE29
:01034B0000B1
:00000001FF
