:0400060000010203F0
:10004600015000C10AC10BC109C108014F00012CB2
:1000560000042400000000014E00012300012200DC
:100EA800E52A24F9700302103724F27003020FF3C5
:100EB80024D57003020FBF24FC7003020FCE146008
:100EC80003021096E52C701FD20A752C01901D9212
:100ED8007403F0E4901D8AF0A3F0A3F0A3E54EF0AC
:100EE800E4A3F0A3021059E52C64017048752C02A4
:100EF800E54E90000693F522E4F523E523240390BC
:100F08001D92F0901D8A7401F0901D8DE54EF0241D
:100F180024F8E6FF75F06484901D8FF0EF75F00AF1
:100F28008475F00A84A3E5F0F0E675F00A84A3E579
:100F3800F0F0021096E52C64026003021096E54E6C
:100F4800B4030BC20AE4F52C121EB7021096901DCA
:100F580092E064036025901D90E075F00AA4FF906C
:100F68001D8FE075F064A42FFF901D91E02FFF7492
:100F780024254EF8A607121D8280257424254EF8D4
:100F8800E6FF75F06484901D8FF0EF75F00A8475A4
:100F9800F00A84A3E5F0F0E675F00A84A3E5F0F022
:100FA800752C01901D927403F0E4901D8AF0901D39
:100FB8008DE54EF0021096E52C640260030210964F
:100FC800E5232401800DE52C64026003021096E5F8
:100FD800232404FFE433FE7C007D051216548D2380
:100FE800E5232403901D92F0021096E52CB4011E0F
:100FF800E54E045403F54E901D927403F0E4901DE1
:101008008AF0901D8DE54EF0E4901D8F8043E52C0D
:101018006402707AE523607664016072901D92E044
:10102800FB248AF582E4341DF583E024018048E539
:101038002CB40124E54E24035403F54E901D9274FC
:1010480003F0E4901D8AF0901D8DE54EF0E4901DAC
:101058008FF0A3F0A3F08036E52C64027030E5230E
:10106800602C64016028901D92E0FB248AF582E4DC
:10107800341DF583E02409FFE433FE7C007D0A1269
:101088001654748A2BF582E4341DF583EDF0021CA6
:01109800AEA9
:101D53007E01E4FD7C01742D2EF8E6D3940240034A
:101D6300430780ECC394085004EFC313FF0E0CBC6D
:0E1D730009E474282DF8A607E4FF0DBD04D680
:011D8100223F
:101D8200E4FFFE12000EE4F57BAF7B7E0074242597
:101D92007BF8E6FD121E66AF7B7E00121E397424AC
:0E1DA200257BF8A607057BE57BC3940340DB99
:011DB0002210
:101DDB00E4F57BAF7B7E00121E397424257BF8A6BD
:101DEB00077424257BF8E6B4FF02E4F6057BE57B5C
:051DFB00C3940340DE6B
:011E000022BF
:0C1F3C00300B08121D53120EA8C20B221D
:061F8B003009020550229E
:101D1E00200B31300929E550C3940F4009E550944A
:101D2E001C5003E4F54F742D254FF8A650E4F550E2
:101D3E00054FE54FB4210DC209D20BE4F54F22D267
:051D4E0009E4F550223C
:101E5000538E7F5389F0438901758AD7758CFDC2F3
:061E60008DD288D2A822F9
:0C006600491D8A0000000000000000009E
:101CAE00C2A67F80121F5F7F057E00121F6AE4F5B9
:101CBE007B748A257BF582E4341DF583E0FF121FC9
:101CCE005F7F057E00121F6A057BE57BC39409408A
:081CDE00E07FFE121F5FD2A699
:011CE60022DB
:101EB7007F09901D8AE4F0A3DFFC901D927408F05F
:011EC70022F8
:0D1F2200E4F5C7F5C5F5C675C380F5C4220A
:101E390075C78375C5018FC48EC375C65A75C6A586
:061E490000AFC2121F22CF
:011E4F002270
:101E660075C78375C5028FC48EC38DC275C65A7574
:061E7600C6A500021F22B8
:10000E0075C78375C5038FC48EC375C65A75C6A5CD
:04001E0000021F229B
:10007200015C00015800015500025D0000025300BE
:10008200000263000002610000421D5F00006D9EDD
:10009200002100000000000000000000000000003D
:1000A200000000000000000000000000000000004E
:1000B200000000000000000000000000000000003E
:1000C200000000000000000000000000000000002E
:1000D200000000000000000000000000000000001E
:100E3200471D6100000000000000480000000000A3
:100E4200000000000059000800000000000000003F
:100E52000000000000000000000000000000000090
:100E620000471D6800000000000000C102C101C16E
:100E720005C184C107C103C106C100015A0001575F
:080E82000001590002510000BB
:0C1F4800C2B68F993099FDC299D2B62222
:0B1F54008F9BE59A30E1FB539AFD22C1
:030023000210992F
:10109900C0E0C083C082C0D075D000C006C00720A0
:1010A90098030211E7C298E599548E64807030E57F
:1010B90099B48006755F010211ECE599B481067552
:1010C9005F030211ECE599B49006755F050211EC16
:1010D900E599649160030211EC755F080211ECE572
:1010E9005FB4010DE599B52406755F070211EC801F
:1010F90010E55FB40711E599B4FE06755F020211A8
:10110900EC755F000211ECE55FB40313E599640126
:1011190060030211EC755F04F561F5620211ECE5FB
:101129005FB4042AE59964FE600BC3E5629408E59F
:101139006194004005D2060211EC0562E562AE61D8
:1011490070020561142400F58274003E8038E55F61
:10115900B40511E599640160030211EC755F06F5A8
:10116900550211ECE55FB40624E59964FE6007E5D4
:1011790055C394194004D2008069AF5505557408C8
:101189002FF582E43400F583E599F08056E55FB4E4
:10119900080BE5996524704B755F098046E55FB4D6
:1011A900090885995A755F0A8039E55F640A7033C1
:1011B900E599B4FE21C2B775AF007F91121F54AFF4
:1011C9005A121F54AF24121F5475AF01D2B7755F5D
:1011D90000756003800D755F0075600080053099AA
:1011E90002C299D007D006D0D0D082D083D0E032C5
:030043000211F9AE
:1011F900C0E0C0F0C083C082C0D075D000C006C0B6
:0112090007DD
:10120A00E59A20E0030212E4539AFEE55F60067550
:10121A0060000212EE859B78E560B40111E59B64DB
:10122A00FD60030212E4D2017560020212E4E56075
:10123A00640260030212CFE59B64FE600BC3E55EA5
:10124A0094F8E55D9400404275600075F0CFE5586A
:10125A00A42421F582E5F03400F583E55875F006FB
:10126A00A42583F58375F0F9E55C1216BA055EE5E7
:10127A005EAE5D7002055D142582F582E5833EF55A
:10128A008374F8F0D205D203805075F0CFE558A4E4
:10129A002421F582E5F03400F583E55875F006A4BB
:1012AA002583F58375F0F9E55C1216BA055EE55EED
:1012BA00AE5D7002055D142582F582E5833EF583F5
:1012CA00E59BF08015E560B40310AF9B121F48E55B
:1012DA009BB4FE06755F00756000E59A30E1055320
:0412EA009AFDD2B7E0
:0F12EE00D007D006D0D0D082D083D0F0D0E0325D
:03000300021BFEDF
:101BFE00C0E0C0F0C083C082C0D075D000C000C0AD
:101C0E0001C002C003C004C005C006C007121D1EDD
:101C1E00D007D006D005D004D003D002D001D0001A
:0B1C2E00D0D0D082D083D0F0D0E032C4
:101A1300E4F5B175B2C0755B01D2B6C2B775985023
:101A2300438E40538EFE53890F758BE0758DFEC236
:101A3300ABD28E759A50438E0475D7E075D6FE43AC
:101A43008E1075AF01538E7F5389F0438901758AD8
:101A5300D7758CFDC28DD2A9D28CD288D2A8121D83
:101A6300DB75B71075B810D2ACD2AF121F84E4F592
:041A73005FF5602299
:10150000C2ACC2B6121FA0E4FFFE74762FF582E4CF
:10151000341DF583E0F5993099FDC2990FBF0001A4
:101520000EEF64064E70E3E52475F0648485F0994F
:101530003099FDC299E5586401600B7599013099A5
:10154000FDC2990215EC7599023099FDC299E4F536
:101550007BF57CC3E57C9558E57B94004003021540
:10156000ECE4FEFFC3EF9525EE94005071EF04F517
:10157000993099FDC299E4F57DF57E90002175F0D2
:10158000CFE57C1216BAE57B75F0CFA42583F8E58C
:101590007C75F006A428F58375F0F9EF1216BAEE03
:1015A00075F0F9A42583F583E582257EF582E58330
:1015B000357DF583E0FD64F860158D993099FDC2A5
:1015C00099057EE57E7002057D64F9457D70AC75F8
:1015D00099F83099FDC2990FBF00010E8086057CF5
:1015E000E57C6003021553057B0215537599FE30A7
:0B15F00099FDC299E4F558D2B6D2ACC8
:0115FB0022CD
:101EA500E4901D5FF0A3F07F07901D68E4F0A3DFC9
:011EB500FC30
:011EB6002209
:0E1EF800E55FB40208121500E4F55FD2022285
:1017680075F0CFE558A42421F582E5F03400F5831F
:10177800E55875F006A42583F58375F0F9E55C1244
:1017880016BA055EE55EAE5D7002055D142582F54C
:1017980082E5833EF5837460F075F0CFE558A424A4
:1017A80021F582E5F03400F583E55875F006A425A7
:1017B80083F58375F0F9E55C1216BA055EE55EAE51
:1017C8005D7002055D142582F582E5833EF583741C
:1017D800F8F07468255CF582E4341DF583E4F07450
:1017E80068255CF582E4341DF583E0FF901D60E018
:0A17F8002FF0901D5FE03400F02296
:101A7700E4F560D204200A52121EB7901D8A740C36
:101A8700F0901D5FE0FAA3E0FB7C007D64FFAE02EF
:101A9700121654901D8FEFF07C007D64AF03AE02E9
:101AA7001216547E007F0ACFCDCFCECCCE1216545D
:101AB700A3EFF0901D5FE0FEA3E0FF7C007D0A121C
:101AC7001654901D91EDF0121CAE121EA50558225A
:101BBE00E4F55DF55EF553F554F563F564C201C2C7
:101BCE0005C28CF5AFC2B7759B80E59A30E1FB5329
:101BDE009AFDE55C04F59BE59A30E1FB539AFDD244
:101BEE00B775AF01756001758C4C758AD0D28C2299
:101E9200E4F556055CE55CC395255003021BBE12B2
:031EA2001A77228A
:081F7400C204E4F55C021BBE8F
:03000B0002188E4A
:10188E00C0E0C0F0C083C082C0D075D008758AD7C2
:10189E00758CFD121F8BE5606401705720012F209F
:1018AE00072C0554E55470020553C3945EE553941A
:1018BE0001404B7560007553007554000556E55692
:1018CE00D394045005121BBE8034D20780302005FD
:1018DE002D0564E56470020563C39483E563940685
:1018EE00401C756000756300756400121768121E47
:1018FE0092800B3004080552E55270020551D0D08B
:09190E00D082D083D0F0D0E03289
:101B290075F0CFE558A42428F582E5F03400F58353
:101B3900E55875F006A42583F58375F0F9E55C127F
:101B490016BAE0FF7468255CF582E4341DF583EF6D
:101B5900F07468255CF582E4341DF583E0FF901D7F
:0C1B690060E02FF0901D5FE03400F022DF
:10199C00E4F57BF57CE4F57DF57EC3E57E9525E5E8
:1019AC007D94005053E4FFFE90002175F0CFE57C50
:1019BC001216BAE57B75F0CFA42583F8E57C75F09B
:1019CC0006A428F58375F0F9E57E1216BAE57D7547
:1019DC00F0F9A42583F583E5822FF582E5833EF5A6
:1019EC0083E4F00FBF00010EEF64F94E70BA057E70
:1019FC00E57E70A6057D80A2057CE57C7002057BEA
:061A0C006402457B708FAF
:011A120022B1
:01000A0022D3
:051B7500C20C121C74FB
:101B7A00751B0CE4F51C756C01F56BF56AF569F5D6
:101B8A006D756E00756F1BFFFEFDFC1216C6E475BF
:101B9A001701F516F515F514F518751900751A1CBF
:101BAA00FFFEFDFC121917E51BB51C04C2B5800225
:021BBA00D2B5A2
:021BBC0080FEA9
:1012FD00438E0212199C121A13121FA3C2B4C2B547
:10130D00C2C375C13F121F3C121EF8300209C20242
:10131D00E5587003121F74300708121768121E92D9
:10132D00C207300308C203121B29121E9230066D2C
:10133D00C2B7E4F5AF7F81121F547F01121F54E431
:10134D00F57A7400257AF582E43400F583E0FF1216
:10135D001F54057AE57AC3940840E77FFE121F54A7
:10136D0075AF01D2B77B017A007900121DB1121F42
:10137D00A0200A24121EB7E4FF74842FF582E434F2
:10138D001DF583E0FE748C2FF582E4341DF583EE9C
:10139D00F00FBF06E4121CAEE4F55FC20630004C40
:1013AD00C2B7E4F5AF7F90121F547F01121F54E4B2
:1013BD00F57A900008E075F002A4FFD3E57A9FE579
:1013CD00F06480F874809850147408257AF582E4DE
:1013DD003400F583E0FF121F54057A80D57FFE128D
:1013ED001F5475AF01D2B7E4F55FC20075C13F025E
:0213FD001312C9
:0A1F6A00EF1F70011E144E70F722E5
:101E2100AD07AC06ED1DAE0470011C4E60097FE8E4
:081E31007E03121F6A80ED22FE
:071F840075CED075CDC0221F
:0B1F5F008FCFE5CD30E7FB75CDC02231
:0D1F0600E4F5CFE5CD30E7FBAFCF75CDC0E2
:011F130022AB
:0C1F2F008FCFE5CD30E7FBAFCF75CDC004
:011F3B002283
:100E8A00481D7C0D0A0A280B3B2800461D760000E7
:0D0E9A0000000000461D8400000000000064
:091F1400C2C0C2C1121F1DD2C1DE
:051F1D0000000000229D
:10002600D2C0D2C1121F1D20C002C322C2C0121FDD
:0D0036001D30C002C322C2C1121F1DD32203
:061F9100121F14D2C02251
:061F9700121F14C2C1225A
:081F7C00D2C0121F16C2C122DF
:101E7C007FFFC2C1D2C0121F1830C006DF02C2C120
:051E8C00C322C2C1D316
:011E9100222E
:101CE7007E08300D19AD061EED6010C2C100EF333E
:101CF70092C0EF25E0FF121F1880EAC2C122AD068D
:101D07001EED6010C2C100EF1392C0EFC313FF12A4
:061D17001F1880EAC2C1A2
:011D1D0022A3
:101E01007F08E4FED2C0AD071FED600FEEC313FEE5
:0F1E1100121F1630C0F043068080EBC2C1AF062F
:011E2000229F
:1013FF0012002640030214FFD20D7F65121CE71264
:10140F001E7C4003021F91E4FC121E0174702CF825
:10141F00A607EC64066003121F970CBC07EB121FA4
:10142F007C121F91E574C4540FFFE574540F901D87
:10143F0076F0EF75F00AA4FEE02EF0E0C39428409A
:10144F0004E024D8F0901D76E0FF75F00A84901D1B
:10145F0084F0EF75F00A84A3E5F0F0E575C4540F3E
:10146F00FFE575540F901D77F0EF75F00AA4FFE0BC
:10147F002FF0E0FF75F00A84901D86F0EF75F00AEB
:10148F0084A3E5F0F0E576C4540FFFE576540F9092
:10149F001D78F0EF75F00AA4FFE02FF0E0FF75F074
:1014AF000A84901D88F0EF75F00A84A3E5F0F0E54B
:1014BF0070C4540FFFE570540F901D79F0EF75F065
:1014CF000AA4FFE02FF0E571C4540FFFE571540F2C
:1014DF00A3F0EF75F00AA4FFE02FF0E572C4540FEC
:1014EF00FFE572540FA3F0EF75F00AA4FFE02FF0A1
:0114FF0022CA
:101C39001200265035D20D7F60121CE7121E7C401F
:101C4900028024C20D7F02121CE7121E7C121F9112
:101C5900120026D20D7F62121CE7121E7CC20DE40F
:0B1C6900FF121CE7121E7C121F9122CC
:101AD700E4FC747C2CF582E4341DF583E0FF75F09B
:101AE7000A84FEEF75F00A8474702CF8A6F0EEC431
:101AF70054F0FF74702CF8EF26F60CBC07D41200D4
:101B070026D20D7F64121CE7121E7CE4FC74702C35
:101B1700F8E6FFC20D121CE7121E7C0CBC07EE0292
:021B27001F910C
:031F9D00021AD74E
:031FA0000213FF2A
:031FA300021C39E4
:061DB1008B7B8A7C897D1A
:101DB700E4FFAB7BAA7CA97D8F8275830012161581
:101DC700FE747C2FF582E4341DF583EEF00FBF0817
:041DD700E1021F9D69
:101C7400C2927FAB121F2FE4FF121F2FE4FF121F2B
:101C84002FE4FF121F2FE4FF121F2F8F1DE4FF12FA
:101C94001F2FE4FF121F2FD292E51DB49D06BF7FB4
:091CA40003D38001C3920CA20CD1
:011CAD002214
:101EC800C2927F05121F2FE4FF121F2FD292EF1329
:011ED80022E7
:0F1EE900121EC840FBC2927F06121F2FD29222F8
:101ED900300C0C121EE9C2927FC7121F2FD2922218
:101917008F138E128D118C10300C79121EC840FB5C
:10192700C2927F0B121F2FAF11121F2FAF12121F60
:101937002FAF13121F2FE4FF121F2FAF17AE16ADD5
:1019470015AC14EC4D4E4F6049E4FF121F2FAB1836
:10195700AA19A91AEF121642E5132401F513E43563
:1019670012F512E43511F511E43510F5107401255F
:101977001AF51AE43519F519E51724FFF517E516D1
:1019870034FFF516E51534FFF515E51434FFF514A6
:0519970080A9D292229C
:1016C6008F688E678D668C65200C03021767AF6C7A
:1016D600AE6BAD6AAC69EC4D4E4F700302176712E4
:1016E6001EE9C2927F02121F2FAF66121F2FAF672D
:1016F600121F2FAF68121F2FAF6CAE6BAD6AAC69AD
:10170600EC4D4E4F6056AB6DAA6EA96F1215FCFFDD
:10171600121F2FE5682401F568E43567F567E4359F
:1017260066F566E43565F5657401256FF56FE43594
:101736006EF56EE56C24FFF56CE56B34FFF56BE535
:101746006A34FFF56AE56934FFF569E568FFE4FE8A
:10175600FDFCFBFAF9F8C31216A9709CD292021688
:02176600D4228B
:031FA600D20C2238
:03000000021802E1
:0C180200787FE4F6D8FD75817E0218495D
:1015FC00BB010689828A83E0225002E722BBFE02ED
:09160C00E32289828A83E493221F
:10161500BB010CE58229F582E5833AF583E022508A
:1016250006E92582F8E622BBFE06E92582F8E222D4
:0D163500E58229F582E5833AF583E49322EE
:10164200BB010689828A83F0225002F722BBFE0187
:02165200F32281
:10165400BC000BBE0029EF8DF084FFADF022E4CC7A
:10166400F875F008EF2FFFEE33FEEC33FCEE9DEC43
:10167400984005FCEE9DFE0FD5F0E9E4CEFD22ED89
:10168400F8F5F0EE8420D21CFEADF075F008EF2FD3
:10169400FFED33FD4007985006D5F0F222C398FDC4
:0516A4000FD5F0EA2261
:1016A900EB9FF5F0EA9E42F0E99D42F0E89C45F097
:0116B900220E
:0C16BA00A42582F582E5F03583F583223B
:10180E000212FDE493A3F8E493A34003F68001F2E1
:10181E0008DFF48029E493A3F85407240CC8C333DB
:10182E00C4540F4420C8834004F456800146F6DFAA
:10183E00E4800B0102040810204080900046E47EF4
:10184E00019360BCA3FF543F30E509541FFEE4939F
:10185E00A360010ECF54C025E060A840B8E493A366
:10186E00FAE493A3F8E493A3C8C582C8CAC583CA91
:10187E00F0A3C8C582C8CAC583CADFE9DEE780BE49
:010EA700004A
:00000001FF
