:0400060000010203F0
:10004600014C00C10AC10BC109C108014B000128BE
:1000560000441FCE00000000014A000123000122D7
:010066000099
:1010DF00E52624F9700302129A24F27003021256C5
:1010EF0024D5700302122224FC7003021231146003
:1010FF00030212F9E528701FD20A752801901FCD3F
:10110F007403F0E4901FC5F0A3F0A3F0A3E54AF039
:10111F00E4A3F0A30212BCE5286401705B752802FA
:10112F00E54A90000693F522E4F523E52324039086
:10113F001FCDF0901FC57401F0901FC8E54AF02431
:10114F00CEF582E4341FF583E0FF75F06484901FC1
:10115F00CAF0EF75F00A8475F00A84A3E5F0F07415
:10116F00CE254AF582E4341FF583E075F00A8490AA
:10117F001FCCE5F0F00212F9E528640260030212B9
:10118F00F9E54AB4030BC20AE4F528121FEB021269
:10119F00F9901FCDE06403602B901FCBE075F00A30
:1011AF00A4FF901FCAE075F064A42FFF901FCCE03E
:1011BF002FFF74CE254AF582E4341FF583EFF0122A
:1011CF001D5E803874CE254AF582E4341FF583E026
:1011DF00FF75F06484901FCAF0EF75F00A8475F004
:1011EF000A84A3E5F0F074CE254AF582E4341FF5A6
:1011FF0083E075F00A84901FCCE5F0F0752801901C
:10120F001FCD7403F0E4901FC5F0901FC8E54AF09E
:10121F000212F9E528640260030212F9E5232401A2
:10122F00800DE528640260030212F9E5232404FF10
:10123F00E433FE7C007D051217888D23E5232403FC
:10124F00901FCDF00212F9E528B4011EE54A0454AF
:10125F0003F54A901FCD7403F0E4901FC5F0901F63
:10126F00C8E54AF0E4901FCA8043E5286402707A0B
:10127F00E523607664016072901FCDE0FB24C5F515
:10128F0082E4341FF583E024018048E528B401246B
:10129F00E54A24035403F54A901FCD7403F0E490FC
:1012AF001FC5F0901FC8E54AF0E4901FCAF0A3F0E5
:1012BF00A3F08036E52864027030E523602C6401CA
:1012CF006028901FCDE0FB24C5F582E4341FF58321
:1012DF00E02409FFE433FE7C007D0A12178874C5F1
:0D12EF002BF582E4341FF583EDF0021E495B
:101EEE007E01E4FD7C0174292EF8E6D394024003B2
:101EFE00430780ECC394085004EFC313FF0E0CBCD1
:0E1F0E0009E474242DF8A607E4FF0DBD04D6E7
:011F1C0022A2
:101D5E00E4FFFE12000EE4F576AF767E0074CE251B
:101D6E0076F582E4341FF583E0FD121FACAF767E6C
:101D7E0000121F7F74CE2576F582E4341FF583EFB3
:0A1D8E00F00576E576C3940340CF1C
:011D98002228
:101D2100E4F576AF767E00121F7F74CE2576F582BC
:101D3100E4341FF583EFF074CE2576F582E4341F89
:101D4100F583E0B4FF0D74CE2576F582E4341FF5FA
:0C1D510083E4F00576E576C3940340C7F8
:011D5D002263
:0C208000300B08121EEE1210DFC20B2203
:0620CC00300902054C2260
:101EB900200B31300929E54CC3940F4009E54C94B6
:101EC9001C5003E4F54B7429254BF8A64CE4F54C5A
:101ED900054BE54BB4210DC209D20BE4F54B22D2D7
:051EE90009E4F54C22A4
:101F9600538E7F5389F0438901758AD7758CFDC2AC
:061FA6008DD288D2A822B2
:0C006700491FC500000000000000000060
:101E4900C2A67F801220987F057E001220A3E4F5A8
:101E59007674C52576F582E4341FF583E0FF1220F8
:101E6900987F057E001220A30576E576C394094084
:081E7900E07FFE122098D2A6C2
:011E8100223E
:101FEB007F09901FC5E4F0A3DFFC901FCD7408F0B0
:011FFB0022C3
:0D206600E4F5C7F5C5F5C675C380F5C422C5
:101F7F0075C78375C5018FC48EC375C65A75C6A53F
:061F8F0000AFC212206643
:011F95002229
:101FAC0075C78375C5028FC48EC38DC275C65A752D
:061FBC00C6A5000220662C
:10000E0075C78375C5038FC48EC375C65A75C6A5CD
:04001E000002206656
:1000730001580001540001510002590000024F00D1
:1000830000025F0000025D00006F6000A900000035
:10009300000000000000000000000000000000005D
:1000A300000000000000000000000000000000004D
:1000B300000000000000000000000000000000003D
:1000C300000000000000000000000000000000002D
:100FE30000000000000000000000000000441FA9F2
:100FF3000000000048000000000000000000006046
:10100300A100080000000000000000000000000034
:1010130000000000000000000000000000000000CD
:1010230000000000000000000000000000000000BD
:1010330000000000000000000000000000000000AD
:10104300000000000000000000000000000000009D
:10105300000000000000000000000000000000008D
:10106300000000000000000000000000000000007D
:10107300000000000000000000000000000000006D
:10108300000000000000000000000000000000005D
:10109300000000000000000000000000000000004D
:1010A30000000000C102C101C105C184C107C10321
:1010B300C106C100015600015300015500024D0055
:0110C300002C
:0C208C00C2B68F993099FDC299D2B622DD
:05200D001220127F010A
:0B2012008F9BE59A30E1FB539AFD2202
:030023000212FCCA
:1012FC00C0E0C083C082C0D075D000C006C007203B
:10130C00980302143CC298E599548264807030E5CD
:10131C0099B48006755B01021441E599B481067598
:10132C005B03021441E599B48406755B0502144114
:10133C00E59964856003021441755B08021441E56C
:10134C005BB4010DE599B55706755B070214418036
:10135C0010E55BB40711E599B4FE06755B02021447
:10136C0041755B00021441E55BB40313E59964011C
:10137C006003021441755B04F55DF55E021441E5F2
:10138C005BB4042AE59964FE600BC3E55E9408E542
:10139C005D94004005D206021441055EE55EAE5D2B
:1013AC007002055D142400F58274003E8034E55B08
:1013BC00B4050DE5996401707C755B06F55180757B
:1013CC00E55BB40624E59964FE6007E551C394A17E
:1013DC004004D200805FAF51055174082FF582E4B0
:1013EC003400F583E599F0804CE55BB4080BE59986
:1013FC0064017041755B09803CE55BB40908859913
:10140C0056755B0A802FE55B640A7029E599B4FE7A
:10141C0017C2B775AF007F8512200D75AF01D2B71B
:10142C00755B00755C03800D755B00755C00800559
:10143C00309902C299D007D006D0D0D082D083D0B8
:02144C00E0328C
:0300430002144E56
:10144E00C0E0C0F0C083C082C0D075D000C006C05E
:01145E000786
:10145F00E59A20E003021539539AFEE55B600675A5
:10146F005C00021543859B74E55CB40111E59B6438
:10147F00F06003021539D201755C02021539E55C83
:10148F0064026003021524E59B64FE600BC3E55AFA
:10149F0094F5E55994004042755C0075F0D8E55419
:1014AF00A424A9F582E5F03400F583E55475F00323
:1014BF00A42583F58375F0F6E5581217EE055AE566
:1014CF005AAE5970020559142582F582E5833EF50F
:1014DF008374FDF0D205D203805075F0D8E554A483
:1014EF0024A9F582E5F03400F583E55475F003A4E3
:1014FF002583F58375F0F6E5581217EE055AE55A70
:10150F00AE5970020559142582F582E5833EF583A5
:10151F00E59BF08015E55CB40310AF9B12208CE5C2
:10152F009BB4FE06755B00755C00E59A30E10553D0
:04153F009AFDD2B788
:0F154300D007D006D0D0D082D083D0F0D0E03205
:03000300021D9942
:101D9900C0E0C0F0C083C082C0D075D000C000C010
:101DA90001C002C003C004C005C006C007121EB9A5
:101DB900D007D006D005D004D003D002D001D0007E
:0B1DC900D0D0D082D083D0F0D0E03228
:101BD900E4F5B175B2C0755701D2B6C2B775985060
:101BE900438E40538EFE53890F758BE0758DFEC26F
:101BF900ABD28E759A50438E0475D7E075D6FE43E5
:101C09008E1075AF01538E7F5389F0438901758A10
:101C1900D7758CFDC28DD2A9D28CD288D2A8121DBB
:101C29002175B71075B810D2ACD2AF1220C5E4F542
:041C39005BF55C22D9
:10164700C2ACC2B61220E1E4FFFE74B42FF582E407
:10165700341FF583E0F5993099FDC2990FBF00015A
:101667000EEF64034E70E3E5546401600B75990156
:101677003099FDC2990217207599023099FDC299D8
:10168700E4F576F577C3E5779554E576940040035E
:10169700021720E4FEFFEF04F5993099FDC299E4A3
:1016A700F578F5799000A975F0D8E5771217EEE58A
:1016B7007675F0D8A42583F8E57775F003A428F5A7
:1016C7008375F0F6EF1217EEEE75F0F6A42583F5A5
:1016D70083E5822579F582E5833578F583E0FD6436
:1016E700FD60158D993099FDC2990579E5797002EC
:1016F700057864F6457870AC7599FD3099FDC29907
:101707000FBF00010EEF64044E708B0577E577601D
:101717000302168C057602168C7599FE3099FDC268
:0817270099E4F554D2B6D2ACEE
:01172F002297
:0E203C00E55BB40208121647E4F55BD20222FF
:101AF60075F0D8E554A424A9F582E5F03400F58301
:101B0600E55475F003A42583F58375F0F6E55812C0
:101B160017EE055AE55AAE5970020559142582F595
:101B260082E5833EF5837460F075F0D8E554A4240D
:101B3600A9F582E5F03400F583E55475F003A42594
:101B460083F58375F0F6E5581217EE055AE55AAE99
:101B56005970020559142582F582E5833EF5837492
:031B6600FDF0226D
:0820AD00E4F55CD204055422A5
:101CE100E4F559F55AF54FF550F55FF560C201C2BB
:101CF10005C28CF5AFC2B7759B80E59A30E1FB5305
:101D01009AFDE55804F59BE59A30E1FB539AFDD223
:101D1100B775AF01755C01758C4C758AD0D28C2278
:101FD800E4F5520558E558C394045003021CE11275
:031FE80020AD2207
:0820B500C204E4F558021CE12D
:03000B000219E8EF
:1019E800C0E0C0F0C083C082C0D075D008758AD767
:1019F800758CFD1220CCE55C6401705720012F2006
:101A0800072C0550E5507002054FC3945EE54F94CE
:101A180001404B755C00754F007550000552E5524A
:101A2800D394045005121CE18034D207803020057D
:101A38002D0560E5607002055FC39483E55F940639
:101A4800401C755C00755F00756000121AF6121F65
:101A5800D8800B300408054EE54E7002054DD0D0F5
:091A6800D082D083D0F0D0E0322E
:01000A0022D3
:101B6900E4F576F577E4F578F579E4FFFE9000A9D8
:101B790075F0D8E5771217EEE57675F0D8A42583C8
:101B8900F8E57775F003A428F58375F0F6E5791281
:101B990017EEE57875F0F6A42583F583E5822FF530
:101BA90082E5833EF583E4F00FBF00010EEF64F692
:101BB9004E70BA0579E57970020578640445787044
:0F1BC900A90577E5777002057664044576709676
:011BD80022EA
:0100220022BB
:0E1C3D00C20C121E0F300C04D2B48002C2B4CE
:101C4B00751B78E4F51C756804F567F566F565F5A5
:101C5B0069756A00756B1BFFFEFDFC1218BAE47503
:101C6B001704F516F515F514F518751900751A1CEA
:101C7B00FFFEFDFC121A71E51BB51C04D2B58002E8
:021C8B00C2B5E0
:021C8D0080FED7
:10155200438E02121B69121BD91220E4C2B4C2B517
:10156200C2C375C13F12208012203C300209C20260
:10157200E55470031220B5300708121AF6121FD86C
:10158200C207300308C20312000A121FD8300665D0
:10159200C2B7E4F5AF7F8112200DE4F57574002522
:1015A20075F582E43400F583E0FF1220120575E53B
:1015B20075C3940840E77FFE12201275AF01D2B7BF
:1015C2007B017A007900121F1D1220E1121FEBE449
:1015D200FF74BF2FF582E4341FF583E0FE74C52F3C
:1015E200F582E4341FF583EEF00FBF06E4121E49C4
:1015F200E4F55BC206300047C2B7E4F5AF7F841260
:10160200200DE4F575900008E075F002A4FFD3E523
:10161200759FE5F06480F8748098501474082575FD
:10162200F582E43400F583E0FF122012057580D5BF
:101632007FFE12201275AF01D2B7E4F55BC20075CE
:05164200C13F02156725
:0A20A300EF1F70011E144E70F722AB
:101F6700AD07AC06ED1DAE0470011C4E60097FE89D
:081F77007E031220A380ED227D
:0720C50075CED075CDC022DD
:0B2098008FCFE5CD30E7FB75CDC022F7
:0D204A00E4F5CFE5CD30E7FBAFCF75CDC09D
:012057002266
:0C2073008FCFE5CD30E7FBAFCF75CDC0BF
:01207F00223E
:1010C400481FB70D0A0A280B3B2800431FB4000031
:0A10D40000461FBF000000000000EE
:09205800C2C0C2C1122061D2C154
:05206100000000002258
:10002600D2C0D2C112206120C002C322C2C0122097
:0D0036006130C002C322C2C1122061D3227A
:0620D200122058D2C022CA
:0620D800122058C2C122D3
:0820BD00D2C012205AC2C12258
:101FC2007FFFC2C1D2C012205C30C006DF02C2C194
:051FD200C322C2C1D3CF
:011FD70022E7
:101E82007E08300D19AD061EED6010C2C100EF33A1
:101E920092C0EF25E0FF12205C80EAC2C122AD06AB
:101EA2001EED6010C2C100EF1392C0EFC313FF1208
:061EB200205C80EAC2C1C1
:011EB8002207
:101F47007F08E4FED2C0AD071FED600FEEC313FE9E
:0F1F570012205A30C0F043068080EBC2C1AF06A3
:011F66002258
:1017FA0012002640030218B9D20D7F65121E82120A
:10180A001FC240030220D2E4FC121F47746C2CF85A
:10181A00A607EC640660031220D80CBC07EB122062
:10182A00BD1220D2E570C4540FFFE570540F901F0B
:10183A00B4F0EF75F00AA4FEE02EF0E0C39428405D
:10184A0004E024D8F0901FB4E0FF75F00A84901FDA
:10185A00BFF0EF75F00A84A3E5F0F0E571C4540F08
:10186A00FFE571540F901FB5F0EF75F00AA4FFE081
:10187A002FF0E0FF75F00A84901FC1F0EF75F00AAF
:10188A0084A3E5F0F0E572C4540FFFE572540F909B
:10189A001FB6F0EF75F00AA4FFE02FF0E0FF75F035
:0F18AA000A84901FC3F0EF75F00A84A3E5F0F0F5
:0118B900220C
:101DD4001200265035D20D7F60121E82121FC2409F
:101DE400028024C20D7F02121E82121FC21220D250
:101DF400120026D20D7F62121E82121FC2C20DE48F
:0B1E0400FF121E82121FC21220D22209
:101C8F00E4FC74B72CF582E4341FF583E0FF75F0A4
:101C9F000A84FEEF75F00A84746C2CF8A6F0EEC47B
:101CAF0054F0FF746C2CF8EF26F60CBC07D412001E
:101CBF0026D20D7F64121E82121FC2E4FC746C2C9C
:101CCF00F8E6FFC20D121E82121FC20CBC07EE02F5
:021CDF0020D211
:0320DE00021C8F52
:0320E1000217FAE9
:0320E400021DD406
:061F1D008B768A778978BB
:101F2300E4FFAB76AA77A9788F82758300121749ED
:101F3300FE74B72FF582E4341FF583EEF00FBF086C
:041F4300E10220DEB9
:101E0F00C2927FAB122073E4FF122073E4FF122003
:101E1F0073E4FF122073E4FF1220738F1DE4FF128F
:101E2F002073E4FF122073D292E51DB49D06BF7F8D
:091E3F0003D38001C3920CA20C34
:011E48002277
:101FFC00C2927F05122073E4FF122073D292EF136A
:01200C0022B1
:0F202D00121FFC40FBC2927F06122073D2922238
:10201D00300C0C12202DC2927FC7122073D2922247
:101A71008F138E128D118C10300C79121FFC40FBCC
:101A8100C2927F0B122073AF11122073AF1212207A
:101A910073AF13122073E4FF122073AF17AE16ADAC
:101AA10015AC14EC4D4E4F6049E4FF122073AB1896
:101AB100AA19A91AEF121776E5132401F513E435D3
:101AC10012F512E43511F511E43510F51074012504
:101AD1001AF51AE43519F519E51724FFF517E51676
:101AE10034FFF516E51534FFF515E51434FFF5144B
:051AF10080A9D2922241
:1018BA008F648E638D628C61200C0302195BAF68A2
:1018CA00AE67AD66AC65EC4D4E4F700302195B1204
:1018DA00202DC2927F02122073AF62122073AF636F
:1018EA00122073AF64122073AF68AE67AD66AC6541
:1018FA00EC4D4E4F6056AB69AA6AA96B121730FFBE
:10190A00122073E5642401F564E43563F563E43574
:10191A0062F562E43561F5617401256BF56BE435B6
:10192A006AF56AE56824FFF568E56734FFF567E557
:10193A006634FFF566E56534FFF565E564FFE4FEA8
:10194A00FDFCFBFAF9F8C31217DD709CD29202185B
:02195A00C822A1
:0320E700D20C22F6
:0300000002195C86
:0C195C00787FE4F6D8FD7581790219A3AC
:10173000BB010689828A83E0225002E722BBFE02B7
:09174000E32289828A83E49322EA
:10174900BB010CE58229F582E5833AF583E0225055
:1017590006E92582F8E622BBFE06E92582F8E2229F
:0D176900E58229F582E5833AF583E49322B9
:10177600BB010689828A83F0225002F722BBFE0152
:02178600F3224C
:10178800BC000BBE0029EF8DF084FFADF022E4CC45
:10179800F875F008EF2FFFEE33FEEC33FCEE9DEC0E
:1017A800984005FCEE9DFE0FD5F0E9E4CEFD22ED54
:1017B800F8F5F0EE8420D21CFEADF075F008EF2F9E
:1017C800FFED33FD4007985006D5F0F222C398FD8F
:0517D8000FD5F0EA222C
:1017DD00EB9FF5F0EA9E42F0E99D42F0E89C45F062
:0117ED0022D9
:0C17EE00A42582F582E5F03583F5832206
:10196800021552E493A3F8E493A34003F68001F22E
:1019780008DFF48029E493A3F85407240CC8C33380
:10198800C4540F4420C8834004F456800146F6DF4F
:10199800E4800B0102040810204080900046E47E99
:1019A800019360BCA3FF543F30E509541FFEE49344
:1019B800A360010ECF54C025E060A840B8E493A30B
:1019C800FAE493A3F8E493A3C8C582C8CAC583CA36
:1019D800F0A3C8C582C8CAC583CADFE9DEE780BEEE
:0110DE000011
:00000001FF
