:10030700C100C101C102C103C105C104C106013554
:10031700000528010203040505230000000000036F
:1003270031000000053A09090909090238000002ED
:0B033700360002022F0002022100002D
:1002BB00300148C2AFC201752F077530D0C2A1E51E
:1002CB003015307002152F14D39402E52F94004093
:1002DB001EE4F53FD290053FE53FD3949640F5E4FD
:1002EB00F53FE53FD3949650D6C290053F80F3750A
:0C02FB002F00753002C290D2A1D2AF22B9
:10049400E4F523F524F525F526752711F531F53214
:0404A4007533112279
:0D04BA00C296D295C2947F147E00020468A1
:03000B00020411DB
:10041100C0E0C0D075D008758C4C758AD0AF34055A
:1004210034EFC394644005753400D203D0D0D0E0DA
:010431003298
:10043200E4F59175920175950175960875B108F507
:0D044200B2C2901204BA1204945387DF2254
:10000E0012043275AAFF75AB8743870200007B008E
:10001E007A00793A7D0512034B7F047E0012046844
:10002E007F071204C78F4CE54C30E6497B007A00FF
:10003E0079387514027F611203897FE212044F7DB5
:10004E00FF7F27120400E538B40104D2048007E5CF
:10005E0038B40202D201852E317514007515007563
:10006E0016317517037B007A0079287D051201C0C1
:10007E00E4F531F52E30045EC2047B007A0079235C
:10008E007D0512034B43870200007F071204C78FC2
:10009E004CE54C30E6217B007A0079387514027FEE
:1000AE00611203897FE212044F7DFF7F2712040045
:1000BE00E538B40102D201852E3175140075150094
:1000CE007516317517037B007A0079287D051201AC
:1000DE00C0E4F531F52E30B305200102D2057F01C3
:1000EE007E001204681204A830050A30B307C20558
:1000FE00D201432E010522E522AE21700205211404
:10010E00C394B8EE940B4010E58730E5095387DFB2
:10011E00D201D2068002C206300605C206432E0464
:06012E001202BB020017E3
:08034200024A05050248000013
:10044F00E4FEEF339293EF25E0FFD294A292E433D0
:08045F004207C2940EBE08EA38
:010467002272
:1003E900C296E4FD7F211204007F241204007F25B8
:0703F9001204007D077F26BE
:10040000C29512044FAC07AF0512044FD295AF044A
:0104100022C9
:0C04C700C29512044FE4FF12044FD295BE
:0104D3002206
:060389008B118A1289139A
:10038F00C29512044FAD07E4FCECC395145017E46B
:10039F00FF12044FAB11AA12A9138C82758300EFC1
:0A03AF001202990C80E3D295AF050D
:0103B9002221
:0603BA008B198A1A891B51
:1003C000C29512044FAD07E4FCECC3951C5015AB6D
:1003D00019AA1AA91B8C8275830012026CFF1204E1
:0803E0004F0C80E5D295AF053A
:0103E80022F2
:1004A800C2967D0D7F20120400D2967F647E0002E2
:0204B800048AB4
:10034B008D101203E9C29685101C7F2A1203BA7D09
:10035B00027F311204001D7F221204001D7FE11267
:10036B0004007FE21204007DFF7F271204007D3F13
:0E037B007F20120400D2967FC87E0002048A02
:100218008D431203E9C29685431C7F2A1203BA7DD7
:10022800027F31120400AB44AA45A94685471C7FCA
:100238002B1203BA7D027F321204000D7F221204B2
:1002480000E4FD7FE11204007FE21204007DFF7FDD
:10025800271204007D3F7F20120400D2967FC87EBB
:040268000002048A02
:1001C0008B108A1189128D13C296D295C2947F1416
:1001D0007E0012048A7FE112044FE4FD7F211204A5
:1001E000007F241204000D1203F7C296AB10AA116F
:1001F000A91285131C7F301203BAAB14AA15A916D5
:1002000085171C7FA01203BA7D7E7F20120400D2C6
:08021000967FC87E0002048AFB
:0B047F007FF57E0012048A7FF57E00EE
:0A048A00EF1F70011E144E70F722E0
:10046800AD07AC06ED1DAE0470011C4E6008120409
:070478007F12047F80EE22D9
:03000000020134C6
:0C013400787FE4F6D8FD75814C02017B59
:10026C00BB010CE58229F582E5833AF583E0225047
:10027C0006E92582F8E622BBFE06E92582F8E22291
:0D028C00E58229F582E5833AF583E49322AB
:10029900F8BB010DE58229F582E5833AF583E8F09B
:1002A900225006E92582C8F622BBFE05E92582C847
:0202B900F2222F
:1001400002000EE493A3F8E493A34003F68001F2C7
:1001500008DFF48029E493A3F85407240CC8C333C0
:10016000C4540F4420C8834004F456800146F6DF8F
:10017000E4800B0102040810204080900307E47E15
:10018000019360BCA3FF543F30E509541FFEE49384
:10019000A360010ECF54C025E060A840B8E493A34B
:1001A000FAE493A3F8E493A3C8C582C8CAC583CA76
:1001B000F0A3C8C582C8CAC583CADFE9DEE780BE2E
:01034A0000B2
:00000001FF
