:10004600052501020304050322000000022E00001C
:10005600033100000063E80000000000000000001B
:10006600000000000000000000000000000000008A
:10007600000000000000000000000000000000007A
:10008600000000000000000000000000000000006A
:10009600000000000000000000000000000000005A
:1004460000013900012100013C0001300060F00488
:100456002400000000000000000000000000000072
:100466000000000000000000000000000000000086
:100476000000000000000000000000000000000076
:100486000000000000000000000000000000000066
:100496000000000000000000000000000000000056
:1004A6000000000000000000000000000000000046
:1004B6000000000000000000000000000000000036
:1004C6000000000000000000000000000000000026
:1004D6000000000000000000000000000000000016
:1004E6000000000000000000000000000000000006
:1004F60000000000000000000000000000000000F6
:1005060000000000000000000000000000000000E5
:1005160000000000000000000000000000000000D5
:1005260000000000000000000000000000000000C5
:1005360000000000000000000000000000000000B5
:1005460000603C03E800000000000000000000001E
:100556000000000000000000000000000000000095
:100566000000000000000000000000000000000085
:100576000000000000000000000000000000000075
:0D05860000C100C101023400000237000076
:030043000209FAB5
:1009FA00C0E0C0D0E59A30E00CB2A5539AFEE59B60
:100A0A00B4FE02D200E59A30E103539AFDD0D0D069
:020A1A00E032C8
:1009D700759A50438E0475D7E075D6FE438E107511
:1009E700AF01D2AF7E037FE87D007B017A007900FB
:0309F7000207876D
:1007B300E4F5AF759BFDE59A30E1FB539AFDE52126
:1007C300253CFFE433FE7C007D031207328F9BE55B
:1007D3009A30E1FB539AFDE52175F00384F59BE51F
:1007E3009A30E1FB539AFDE4FFFEC3EF9521EE94AB
:1007F30000501C74242FF582E43404F583E0F59B48
:10080300E59A30E1FB539AFD0FBF00010E80DBE454
:10081300FEFFC3EF953CEE9400501C74E82FF58265
:10082300E43403F583E0F59BE59A30E1FB539AFD4D
:100833000FBF00010E80DB759BFEE59A30E1FB5391
:100843009AFD75AF017E037FE87D007B017A007915
:0908530000120787E4F521F53CD1
:01085C002279
:0A0A8600E4900424F09003E8F0224D
:10059D00C2A5C2A6120A861209D77B007A00792558
:1005AD007D0512093B75C13F7F07120A618F1EE55C
:1005BD001E20E6030206B6B2A67B007A00792275EC
:1005CD000C037F611200037FE2120A1C7DFF7F275F
:1005DD001209C6E5242523FFE433FEEF7807C33364
:1005ED00CE33CED8F9F52F8E2E7803CEC313CE137E
:1005FD00D8F9F52D8E2C752A00E52F5407F52BFF14
:10060D007400252DF5827400352CF583E0FEA807C6
:10061D00088002C313D8FC5401F530704F740025C7
:10062D002DF5827400352CF5837401A8070880021E
:10063D00C313D8FC4EF0E521C394F0502F7424253C
:10064D0021F582E43404F583E4F074252521F58247
:10065D00E43404F583E523F074262521F582E43492
:10066D0004F583E524F074032521F521E522605876
:10067D00E53CC3943C505174E8253CF582E43403C9
:10068D00F583E522F074E9253CF582E43403F58326
:10069D00E523F074EA253CF582E43403F583E52483
:1006AD00F07403253CF53C801F7B007A00791975A9
:1006BD000C01E4FF120003E519643F600B7B007A27
:1006CD000079257D0512093B3000051207B3C200E4
:0606DD0075C13F0205B5E6
:09059300021C050503190000001B
:100A1C00E4FEEF3392A1EF25E0FFD2A2A2A0E433D3
:080A2C004207C2A20EBE08EA57
:010A3400229F
:1009B000E4FD7F211209C67F241209C60D7F25128E
:0609C00009C67D077F2639
:1009C600C2A3120A1CAC07AF05120A1CD2A3AF04BD
:0109D60022FE
:0C0A6100C2A3120A1CE4FF120A1CD2A35C
:010A6D002266
:060003008B098A0A890B3B
:10000900C2A3120A1CAD07E4FCECC3950C5017E41B
:10001900FF120A1CAB09AA0AA90B8C82758300EF8F
:0A0029001207100C80E3D2A3AF050C
:0100330022AA
:060981008B0D8A0E890FA8
:10098700C2A3120A1CAD07E4FCECC395105015ABCB
:100997000DAA0EA90F8C827583001206E3FF120AB7
:0809A7001C0C80E5D2A3AF0592
:0109AF002225
:10093B008B088A09890A8D0BC2A4D2A3C2A27F1489
:10094B007E00120A571209B0C2A4AB08AA09A90A61
:10095B00850B107F2A1209817D037F311209C67D19
:10096B00017F221209C67D3F7F201209C6D2A47FC8
:06097B00C87E00020A57CD
:1008E9008B118A1289138D14C2A4D2A3C2A27F14B8
:1008F9007E00120A571209B0C2A4AB11AA12A91399
:100909008514107F30120981AB15AA16A91785180D
:10091900107FA01209817D7E7F201209C6D2A47F93
:10092900C87E00120A577FE1120A1C7DFF7F270249
:0209390009C6ED
:0B0A4C007FF57E00120A577FF57E0048
:0A0A5700EF1F70011E144E70F7220D
:100A3500AD07AC06ED1DAE0470011C4E6008120A30
:070A45004C120A4C80EE2266
:0D0A6E00E4F5CF75CDC075CE4043AF022238
:0B0A7B008FCFE5CD30E7FB75CDC0222A
:0D003400E4F5CFE5CD30E7FBAFCF75CDC0D3
:01004100229C
:0300000002085D96
:0C085D00787FE4F6D8FD75813C0208A409
:1006E300BB010CE58229F582E5833AF583E02250CC
:1006F30006E92582F8E622BBFE06E92582F8E22216
:0D070300E58229F582E5833AF583E493222F
:10071000F8BB010DE58229F582E5833AF583E8F01F
:10072000225006E92582C8F622BBFE05E92582C8CB
:02073000F222B3
:10073200BC000BBE0029EF8DF084FFADF022E4CCAB
:10074200F875F008EF2FFFEE33FEEC33FCEE9DEC74
:10075200984005FCEE9DFE0FD5F0E9E4CEFD22EDBA
:10076200F8F5F0EE8420D21CFEADF075F008EF2F04
:10077200FFED33FD4007985006D5F0F222C398FDF5
:050782000FD5F0EA2292
:10078700EF4E6012EF60010EEDBB010B89828A8389
:10079700F0A3DFFCDEFA2289F05007F709DFFCA996
:0C07A700F022BBFEFCF309DFFCA9F022ED
:1008690002059DE493A3F8E493A34003F68001F203
:1008790008DFF48029E493A3F85407240CC8C33390
:10088900C4540F4420C8834004F456800146F6DF5F
:10089900E4800B0102040810204080900046E47EA9
:1008A900019360BCA3FF543F30E509541FFEE49354
:1008B900A360010ECF54C025E060A840B8E493A31B
:1008C900FAE493A3F8E493A3C8C582C8CAC583CA46
:1008D900F0A3C8C582C8CAC583CADFE9DEE780BEFE
:01059C00005E
:00000001FF
