:10004600052501020304050322000000022C00001E
:10005600032F000000607D0000000000000000008B
:10006600000000000000000000000000000000008A
:10007600000000000000000000000000000000007A
:10008600000000000000000000000000000000006A
:10009600000000000000000000000000000000005A
:1000A600000000000000000000000000000000004A
:1000B600000000000000000000000000000000003A
:1000C600000000000000000000000000000000002A
:1000D6000000000000000136000121000139000186
:1000E6002E0060F000B900000000000000000000D3
:1000F60000000000000000000000000000000000FA
:1001060000000000000000000000000000000000E9
:1001160000000000000000000000000000000000D9
:1001260000000000000000000000000000000000C9
:1001360000000000000000000000000000000000B9
:1001460000000000000000000000000000000000A9
:100156000000000000000000000000000000000099
:100166000000000000000000000000000000000089
:100176000000000000000000000000000000000079
:100186000000000000000000000000000000000069
:100196000000000000000000000000000000000059
:1001A6000000000000000000000000000000000049
:1001B6000000000000000000000000000000000039
:1001C6000000000000000000000000000000000029
:1001D600000000000000603C007D00000000000000
:1001E6000000000000000000000000000000000009
:1001F60000000000000000000000000000000000F9
:1002060000000000000000000000000000000000E8
:10021600000000000000C100C101023200000135EB
:0102260000D7
:030043000206674B
:10066700C0E0C0D0E59A30E00CB2A5539AFEE59BF6
:10067700B4FE02D200E59A30E103539AFDD0D0D000
:02068700E0325F
:10068900759A50438E0475D7E075D6FE438E107562
:0E069900AF01D2AF7F7D900000E4F0A3DFFC44
:0106A7002230
:10044300E4F5AF759BF0E59A30E1FB539AFDE521A6
:100453002539FFE433FE7C007D031203C28F9BE545
:100463009A30E1FB539AFDE52175F00384F59BE592
:100473009A30E1FB539AFDE4FFFEC3EF9521EE941E
:1004830000501C74B92FF582E43400F583E0F59B2A
:10049300E59A30E1FB539AFD0FBF00010E80DBE4C8
:1004A300FEFFC3EF9539EE9400501C747D2FF58247
:1004B300E43400F583E0F59BE59A30E1FB539AFDC4
:1004C3000FBF00010E80DB759BFEE59A30E1FB5305
:1004D3009AFD75AF017E007F7D7D007B017A0079F7
:0904E30000120417E4F521F539BB
:0104EC0022ED
:0A071200E49000B9F090007DF022A1
:10023100C2A5C2A61207121206897B007A0079258F
:100241007D051205CB75C13F7F071206ED8F1EE5B7
:100251001E20E603020346B2A67B007A00792275CE
:100261000C037F611200037FE21206A87DFF7F2746
:10027100120656E5242523FFE433FEEF7807C33346
:10028100CE33CED8F9F52D8E2C7803CEC313CE13F1
:10029100D8F9F52BE52D5407F52A7400252BF582A5
:1002A100E43400F583E0FFAE2AA806088002C313F8
:1002B100D8FC5401F52E70507400252BF582E434DE
:1002C10000F583AE2A7401A806088002C313D8FC86
:1002D1004FF0E521C394F0502F74B92521F582E444
:1002E1003400F583E4F074BA2521F582E43400F595
:1002F10083E523F074BB2521F582E43400F583E521
:1003010024F074032521F521E5226058E539C394D1
:100311003C5051747D2539F582E43400F583E522A2
:10032100F0747E2539F582E43400F583E523F07419
:100331007F2539F582E43400F583E524F074032543
:1003410039F539801F7B007A007919750C01E4FFBA
:10035100120003E519643F600B7B007A0079257D6B
:10036100051205CB300005120443C20075C13F02DE
:0203710002493F
:09022700021C050503190000008A
:1006A800E4FEEF3392A1EF25E0FFD2A2A2A0E4334B
:0806B8004207C2A20EBE08EACF
:0106C0002217
:10064000E4FD7F211206567F241206560D7F2512E7
:0606500006567D077F261F
:10065600C2A31206A8AC07AF051206A8D2A3AF0420
:010666002271
:0C06ED00C2A31206A8E4FF1206A8D2A3C4
:0106F90022DE
:060003008B098A0A890B3B
:10000900C2A31206A8AD07E4FCECC3950C5017E493
:10001900FF1206A8AB09AA0AA90B8C82758300EF07
:0A0029001203A00C80E3D2A3AF0580
:0100330022AA
:060611008B0D8A0E890F1B
:10061700C2A31206A8AD07E4FCECC395105015ABB6
:100627000DAA0EA90F8C82758300120373FF1206A1
:08063700A80C80E5D2A3AF0579
:01063F002298
:1005CB008B088A09890A8D0BC2A4D2A3C2A27F14FD
:1005DB007E001206E3120640C2A4AB08AA09A90AC0
:1005EB00850B107F2A1206117D037F311206567D73
:1005FB00017F221206567D3F7F20120656D2A47F22
:06060B00C87E000206E3B8
:100579008B118A1289138D14C2A4D2A3C2A27F142B
:100589007E001206E3120640C2A4AB11AA12A913F7
:100599008514107F30120611AB15AA16A9178518F4
:1005A900107FA01206117D7E7F20120656D2A47FED
:1005B900C87E001206E37FE11206A87DFF7F2702AD
:0205C9000656D4
:0B06D8007FF57E001206E37FF57E0038
:0A06E300EF1F70011E144E70F72285
:1006C100AD07AC06ED1DAE0470011C4E60081206AC
:0706D100D81206D880EE22CA
:0D06FA00E4F5CF75CDC075CE4043AF0222B0
:0B0707008FCFE5CD30E7FB75CDC022A1
:0D003400E4F5CFE5CD30E7FBAFCF75CDC0D3
:01004100229C
:030000000204ED0A
:0C04ED00787FE4F6D8FD758139020534F3
:10037300BB010CE58229F582E5833AF583E022503F
:1003830006E92582F8E622BBFE06E92582F8E22289
:0D039300E58229F582E5833AF583E49322A3
:1003A000F8BB010DE58229F582E5833AF583E8F093
:1003B000225006E92582C8F622BBFE05E92582C83F
:0203C000F22227
:1003C200BC000BBE0029EF8DF084FFADF022E4CC1F
:1003D200F875F008EF2FFFEE33FEEC33FCEE9DECE8
:1003E200984005FCEE9DFE0FD5F0E9E4CEFD22ED2E
:1003F200F8F5F0EE8420D21CFEADF075F008EF2F78
:10040200FFED33FD4007985006D5F0F222C398FD68
:050412000FD5F0EA2205
:10041700EF4E6012EF60010EEDBB010B89828A83FC
:10042700F0A3DFFCDEFA2289F05007F709DFFCA909
:0C043700F022BBFEFCF309DFFCA9F02260
:1004F900020231E493A3F8E493A34003F68001F2E6
:1005090008DFF48029E493A3F85407240CC8C33303
:10051900C4540F4420C8834004F456800146F6DFD2
:10052900E4800B0102040810204080900046E47E1C
:10053900019360BCA3FF543F30E509541FFEE493C7
:10054900A360010ECF54C025E060A840B8E493A38E
:10055900FAE493A3F8E493A3C8C582C8CAC583CAB9
:10056900F0A3C8C582C8CAC583CADFE9DEE780BE71
:0102300000CD
:00000001FF
