:0400060000010203F0
:10004600015000C108C109C107C106014F00012CBA
:1000560000042400000000014E00012300012200DC
:1005D500E52A24F9700302075724F2700302071570
:1005E50024D570030206E224FC70030206F11460B0
:1005F500030207B4E52C701AD208752C0190029EEF
:1006050004F0E4900296F0A3E54EF0E4A3F0A30213
:100615000777E52C64017045752C02E54E900006C0
:1006250093F522E4F523E5230490029EF0900296CB
:100635007401F0A3E54EF02424F8E6FF75F0648418
:10064500900299F0EF75F00A8475F00A84A3E5F03D
:10065500F0E675F00A84A3E5F0F00207B4E52C6432
:100665000260030207B4E54EB4030BC208E4F52C9F
:100675001210170207B490029EE0640160259002F3
:100685009AE075F00AA4FF900299E075F064A42F32
:10069500FF90029BE02FFF7424254EF8A607120E4B
:1006A5004780257424254EF8E6FF75F06484900292
:1006B50099F0EF75F00A8475F00A84A3E5F0F0E689
:1006C50075F00A84A3E5F0F0752C0190029E740183
:1006D500F0E4900296F0A3E54EF00207B4E52C6431
:1006E5000260030207B4E5232401800DE52C6402B2
:1006F50060030207B4E5232404FFE433FE7C007D98
:1007050005120AAE8D23E5230490029EF00207B47C
:10071500E52CB4011CE54E045403F54E90029E747D
:1007250001F0E4900296F0A3E54EF0E49002998082
:1007350041E52C64027078E5236074640160709073
:10074500029EE0FB2496F582E43402F583E0240161
:100755008046E52CB40122E54E24035403F54E9062
:10076500029E7401F0E4900296F0A3E54EF0E49049
:100775000299F0A3F0A3F08036E52C64027030E511
:1007850023602C6401602890029EE0FB2496F5828C
:10079500E43402F583E02409FFE433FE7C007D0A9E
:1007A500120AAE74962BF582E43402F583EDF0025D
:0207B5000D3EF7
:100E18007E01E4FD7C01742D2EF8E6D39402400394
:100E2800430780ECC394085004EFC313FF0E0CBCB7
:0E0E380009E474282DF8A607E4FF0DBD04D6CA
:010E46002289
:100E4700E4FFFE121003E4F517AF177E00742425A4
:100E570017F8E6FD120FC1AF177E00120F7D74243D
:0E0E67002517F8A6070517E517C3940340DB0F
:010E7500225A
:100F1F00E4F517AF177E00120F7D74242517F8A67E
:100F2F000774242517F8E6B4FF02E4F60517E51752
:050F3F00C3940340DE35
:010F4400228A
:0C108E00300908120E181205D5C2092204
:0610EF003007020550224B
:100DAE00200931300729E550C3940F4009E55094CE
:100DBE001C5003E4F54F742D254FF8A650E4F55062
:100DCE00054FE54FB4210DC207D209E4F54F22D2EB
:050DDE0007E4F55022BE
:100FAB00538E7F5389F0438901758AD7758CFDC2A7
:060FBB008DD288D2A822AD
:0C006600490296000000000000000000AD
:100D3E00C2A37F801210BB7F057E001210C6E4F5A1
:100D4E001774962517F582E43402F583E0FF12102E
:100D5E00BB7F057E001210C60517E517C394094028
:080D6E00E07FFE1210BBD2A3CE
:010D7600225A
:101017007F09900296E4F0A3DFFC90029E7408F02B
:0110270022A6
:01000A0022D3
:0D107400E4F5C7F5C5F5C675C380F5C422C7
:100F7D0075C78375C5018FC48EC375C65A75C6A551
:060F8D0000AFC212107457
:010F9300223B
:100FC10075C78375C5028FC48EC38DC275C65A7528
:060FD100C6A50002107429
:1010030075C78375C5038FC48EC375C65A75C6A5C8
:041013000002107453
:03110100C2922275
:03110400D2922262
:0B109A001211017F061210BB021104AE
:0B10A5001211017F041210BB021104A5
:10000E008F1F12109A1211017F011210BBAF1F1217
:05001E0010BB021104FB
:100FD7007F0A7E001210C61211017F051210BB1284
:050FE700106612110468
:010FEC0022E2
:040DE3008D1AAB07B3
:100DE700EEF51BEBF51C12109A1211017F0A7E001B
:100DF7001210C67F021210BBAF1B1210BBAF1C1222
:100E070010BBAF1A1210BB1211047F0A7E0002102A
:010E1700C614
:020EF700AD0745
:100EF900EEF51DEDF51E1211017F0A7E001210C6D6
:100F09007F031210BBAF1D1210BBAF1E1210BB1214
:050F1900106612110436
:010F1E0022B0
:040F94008E748F7553
:100F9800EFFD7FFD7E1F120DE3E574FD7FFC7E1FD4
:030FA800020DE354
:100EA200E4F576F5777FFC7E1F120EF77576008FDC
:100EB200777FFD7E1F120EF7EFFD7C00E577FEE4E3
:0A0EC2002DF577EC3EF576FEAF77D4
:010ECC002203
:10007200026A00000165005901340000000000001E
:10008200000000000000000000000000000000006E
:10009200000000C100C182C105C104C101C1030247
:1000A2006300000257000002680000612E014D004B
:1000B200000000000000000000000000000000003E
:1000C200000000000000000000000000000000002E
:1000D200000000000000000000000000000000001E
:1000E200000000000000000000000000000000000E
:1000F20000000000000000000000000000000000FE
:1001020000000000000000000000000000000000ED
:1001120000000000000000000000000000000000DD
:1001220000000000000000000000000000000000CD
:1001320000000000000000000000000000000000BD
:1001420000000000000000000000000000000000AD
:10015200000000000000000000000000000000009D
:10016200000000000000000000000000000000008D
:10017200000000000000000000000000000000007D
:10018200000000000000000000000000000000006D
:10019200000000000000000000000000000000005D
:1001A200000000000000000000000000000000004D
:1001B200000000000000000000000000000000003D
:1001C200000000000000000000000000000000002D
:1001D20000000000000000000000000000480000D5
:1001E2000000000000000000015E00025B0000024F
:1001F20059000004520000000001560001510001A4
:100202005D00612C000800000000000000000000FA
:1002120000000000000000000000000000000000DC
:1002220000000000000000000000000000000000CC
:1002320000000000000000000000000000000000BC
:1002420000000000000000000000000000000000AC
:10025200000000000000000000000000000000009C
:10026200000000000000000000000000000000008C
:10027200000000000000000000000000000000007C
:10028200000000000000000000000000000000006C
:10029200000000000000000000000000000000005C
:1002A200000000000000000000000000000000004C
:1002B200000000000000000000000000000000003C
:1002C200000000000000000000000000000000002C
:1002D200000000000000000000000000000000001C
:1002E200000000000000000000000000000000000C
:1002F20000000000000000000000000000000000FC
:1003020000000000000000000000000000000000EB
:1003120000000000000000000000000000000000DB
:1003220000000000000000000000000000000000CB
:020332000000C9
:10103900C2B6C2AC8F993099FDC299D2ACD2B62250
:0810D0008F993099FDC29922AD
:10102800E4F5AF8F9BE59A30E1FB539AFD75AF016C
:011038002295
:0A10B0007F19900134E4F0A3DFFC87
:0110BA002213
:030023000207B71A
:1007B700C0E0C083C082C0D075D000C006C007208B
:1007C70098030208D1C298E599548E64807036E583
:1007D70099B4800C7566017563007564000208D6CC
:1007E700E599B481067566030208D6E599B49006C3
:1007F7007566050208D6E599649160030208D67507
:1008070066080208D6E566B40116E524B5990B75A6
:1008170066027FFE1210280208D67566000208D607
:10082700E566B40313E599640160030208D67566AB
:1008370004F56AF56B0208D6E566B40428E5996401
:10084700FE600BC3E56B9408E56A94004004D2058B
:10085700807D056BE56BAE6A7002056A142400F5AE
:100867008274008041E566B4050FE5996401705F05
:10087700756606F559F55A8056E566B40630E5996A
:1008870064FE600DC3E55A9419E55964809480406D
:1008970004D200803A055AE55AAE59700205591438
:1008A7002434F58274013EF583E599F08021E566ED
:1008B700B4080AE524B599177566098012E566B488
:1008C700090D85996575660A8005309902C299D028
:0C08D70007D006D0D0D082D083D0E03211
:030043000209E4CB
:1009E400C0E0C0F0C083C082C0D075D000C000C0D9
:1009F40001C002C003C004C005C006C007E59A30A8
:100A0400E058539AFEE56664026006E56664077082
:100A140049E5677012E59BB4FD0B756701755B00D2
:100A2400755C0080358017E567B4012EE59BB4FE44
:100A340012E566B40203120BA0D203756600756753
:100A4400008017055CE55CAE5B7002055B14244D09
:100A5400F58274013EF583E59BF0E59A30E103539A
:100A64009AFDD007D006D005D004D003D002D0011F
:0D0A7400D000D0D0D082D083D0F0D0E032BE
:0810D800E490014DF0A3F022A9
:100BA00090014DE075F003A4F51012110AC2ACC219
:100BB000B67599FD3099FDC299E4FFFE74822FF558
:100BC00082E43402F583E0F5993099FDC2990FBFB4
:100BD00000010EEF64064E70E3E4FEFFE510240210
:100BE000FDE433FCC3EF9DEE9C5019744D2FF5824C
:100BF00074013EF583E0F5993099FDC2990FBF006D
:100C0000010E80D87599FE3099FDC299D2B6D2AC4A
:010C100022C1
:03000B00020E766C
:100E7600C0E0C0F0C083C082C0D075D008758AD7E4
:100E8600758CFD1210EF2004080564E564700205F8
:0C0E960063D0D0D082D083D0F0D0E03206
:03000300020CC824
:100CC800C0E0C0F0C083C082C0D075D000C000C0F2
:100CD80001C002C003C004C005C006C007120DAEA3
:100CE800D007D006D005D004D003D002D001D00060
:0B0CF800D0D0D082D083D0F0D0E0320A
:100C1100E4F595759601F5B175B240C2A0D2B6F56D
:100C210066F5671210E8759850438E40538EFE5357
:100C3100890F758BE0758DFEC2ABD28E759A5043CC
:100C41008E0475D7E075D6FE438E1075AF01538EB5
:100C51007F5389F0438901758AD7758CFDC28DD286
:100C6100A9D28CD288D2A8120F1F75B71075B810EF
:050C7100D2ACD2AF225D
:0111100022BC
:0E1049007E027F2C900008E4F0A3DFFCDEFAAC
:011057002276
:10035200E4F513F514C2B4C2B51210B0120C1112A6
:10036200110D12108E300060900134E0600ED2A0A8
:1003720075554075540D755303755200C2A27F80A6
:100382001210BBE4F511F512900134E075F002A4ED
:10039200FFD3E5129FE51195F0502174342512F533
:1003A20082E43401F583E0FF1210BB7F057E001268
:1003B20010C60512E51270D0051180CC7FFE121016
:1003C200BBD2A2E4F566C2003005477B017A007910
:1003D20000120ECD12110A200833121017E4F51183
:1003E200F512AF1274902FF582E43402F583E0FE29
:1003F20074962FF582E43402F583EEF00512E512CD
:10040200700205116406451170D8120D3EE4F566BE
:10041200C205E566640A703FD204C2B6C2AC7FFD73
:100422001210D0AF511210D0AF561210D0E556D3E1
:1004320094004013AF561210D0AF651210D07FF95E
:100442001210D0155680E67FFE1210D0D2ACD2B672
:10045200B2B4E4F566C20420030302057F30080348
:1004620002057F12101790014EE0FF90014DE0FE51
:10047200B50717900296740CF090014EE0FD75F0EE
:0A0482000A8490029AF0ED02057260
:10048C008F16EE75F003A414F515C3E5166480946D
:10049C00804022E515D39400401B744D2515F58240
:1004AC00E43401F583E030E002800A74FD2515F593
:1004BC0015151680D5C3E51664809480500302058B
:1004CC005E75554075540D755303755200D2A0904E
:1004DC0002967411F0744E2515F582E43401F583FF
:1004EC00E075F080A4FFAEF0744F2515F582E4346E
:1004FC0001F583E07C002FF558EC3EF557FEAF5824
:10050C007C037DE8120AAE900298EFF0AE57AF581C
:10051C007C037DE8120AAE7E007F64CFCDCFCECCBB
:10052C00CE120AAEA3EFF0AE57AF587C007D64122A
:10053C000AAE7E007F0ACFCDCFCECCCE120AAEA3B0
:10054C00EFF0AE57AF587C007D0A120AAEA3EDF067
:10055C00801C900296740CF090014EE0FF75F00A2E
:0E056C008490029AF0EF75F00A84A3E5F0F097
:10057A00120D3EC203D3E56494C0E563945D40174F
:10058A00D204E4F563F5641211101210D8756607E7
:10059A007FFE121028C204E47F02FEFDFCAB55AABE
:1005AA0054A953A852C3120B03401BE55524FFF567
:1005BA0055E55434FFF554E55334FFF553E5523409
:0B05CA00FFF552020364C2A0020364AC
:100334004802880D0A0A280B3B2800460282000066
:0D03440000000000460290000000000000D4
:09105800C2A4C2A5121061D2A5C8
:05106100000000002268
:10002600D2A4D2A512106120A402C322C2A4121027
:0D0036006130A402C322C2A5121061D322C2
:0610F500121058D2A422E3
:0610FB00121058C2A522EC
:0810E000D2A412105AC2A5228D
:100FED007FFFC2A5D2A412105C30A406DF02C2A5F9
:050FFD00C322C2A5D3D0
:0110020022CB
:100D77007E08300B19AD061EED6010C2A500EF33DB
:100D870092A4EF25E0FF12105C80EAC2A522AD060F
:100D97001EED6010C2A500EF1392A4EFC313FF125C
:060DA700105C80EAC2A509
:010DAD002223
:100F45007F08E4FED2A4AD071FED600FEEC313FECC
:0F0F550012105A30A4F043068080EBC2A5AF06FD
:010F6400226A
:1008E30012002640030209E3D20B7F65120D771233
:1008F3000FED40030210F5E4FC120F45746C2CF865
:10090300A607EC640660031210FB0CBC07EB121085
:10091300E01210F5E570C4540FFFE570540F900218
:1009230082F0EF75F00AA4FEE02EF0E0C3942840B5
:1009330004E024D8F0900282E0FF75F00A8490026C
:1009430090F0EF75F00A84A3E5F0F0E571C4540F5D
:10095300FFE571540F900283F0EF75F00AA4FFE0F6
:100963002FF0E0FF75F00A84900292F0EF75F00A21
:1009730084A3E5F0F0E572C4540FFFE572540F90C1
:100983000284F0EF75F00AA4FFE02FF0E0FF75F0AA
:100993000A84900294F0EF75F00A84A3E5F0F0E581
:1009A3006CC4540FFFE56C540F900285F0EF75F0A3
:1009B3000AA4FFE02FF0E56DC4540FFFE56D540F5B
:1009C300A3F0EF75F00AA4FFE02FF0E56EC4540F17
:1009D300FFE56E540FA3F0EF75F00AA4FFE02FF0CC
:0109E30022F1
:100D03001200265035D20B7F60120D77120FED4083
:100D1300028024C20B7F02120D77120FED1210F521
:100D2300120026D20B7F62120D77120FEDC20BE475
:0B0D3300FF120D77120FED1210F522D9
:100C7600E4FC74882CF582E43402F583E0FF75F019
:100C86000A84FEEF75F00A84746C2CF8A6F0EEC4A4
:100C960054F0FF746C2CF8EF26F60CBC07D4120047
:100CA60026D20B7F64120D77120FEDE4FC746C2CC8
:100CB600F8E6FFC20B120D77120FED0CBC07EE0221
:020CC60010F527
:03110700020C7661
:03110A000208E3F5
:03110D00020D03CD
:060ECD008B178A18891939
:100ED300E4FFAB17AA18A9198F82758300120A8140
:100EE300FE74882FF582E43402F583EEF00FBF0819
:040EF300E102110700
:0A10C600EF1F70011E144E70F72298
:100F6500AD07AC06ED1DAE0470011C4E60097FE8AF
:080F75007E031210C680ED227C
:0710E80075CED075CDC022CA
:0B10BB008FCFE5CD30E7FB75CDC022E4
:0D106600E4F5CFE5CD30E7FBAFCF75CDC091
:01107300225A
:0C1081008FCFE5CD30E7FBAFCF75CDC0C1
:01108D002240
:03000000020B14DC
:0C0B1400787FE4F6D8FD758177020B5B5A
:100A8100BB010CE58229F582E5833AF583E022502A
:100A910006E92582F8E622BBFE06E92582F8E22274
:0D0AA100E58229F582E5833AF583E493228E
:100AAE00BC000BBE0029EF8DF084FFADF022E4CC2C
:100ABE00F875F008EF2FFFEE33FEEC33FCEE9DECF5
:100ACE00984005FCEE9DFE0FD5F0E9E4CEFD22ED3B
:100ADE00F8F5F0EE8420D21CFEADF075F008EF2F85
:100AEE00FFED33FD4007985006D5F0F222C398FD76
:050AFE000FD5F0EA2213
:100B0300EB9FF5F0EA9E42F0E99D42F0E89C45F048
:010B130022BF
:100B2000020352E493A3F8E493A34003F68001F296
:100B300008DFF48029E493A3F85407240CC8C333D6
:100B4000C4540F4420C8834004F456800146F6DFA5
:100B5000E4800B0102040810204080900046E47EEF
:100B6000019360BCA3FF543F30E509541FFEE4939A
:100B7000A360010ECF54C025E060A840B8E493A361
:100B8000FAE493A3F8E493A3C8C582C8CAC583CA8C
:100B9000F0A3C8C582C8CAC583CADFE9DEE780BE44
:0103510000AB
:00000001FF
