:0400060000010203F0
:1003D2004102C400C108C109C107C1064102C300EC
:1003E2004102A000440298000000004102C2004104
:0703F2000297004102960092
:1006F10090029EE024F970030208C724F2700302FD
:10070100087C24D5700302084124FC7003020854BC
:1007110014600302092A9002A0E0FF701CD20804B1
:10072100F0900307F0E49002FFF09002C2E0900322
:1007310000F0E4A3F0A30208EBEF6401705A900209
:10074100A07402F09002C2E0FF900006939002961E
:10075100F0E4A3F004900307F09002FFF0A3EFF0A0
:100761002498F582E43402F583E0FE75F064849008
:100771000302F0EE75F00A8475F00A84A3E5F0F047
:1007810074982FF582E43402F583E075F00A8490C1
:100791000304E5F0F002092A9002A0E0640260037C
:1007A10002092A9002C2E0B4030DC208E49002A03B
:1007B100F01216B702092A900307E06401602D9038
:1007C1000303E075F00AA4FF900302E075F064A44E
:1007D1002FFF900304E02FFF9002C2E02498F582DE
:1007E100E43402F583EFF0121367803A9002C2E01D
:1007F100FF2498F582E43402F583E0FE75F0648409
:10080100900302F0EE75F00A8475F00A84A3E5F016
:10081100F074982FF582E43402F583E075F00A84D0
:10082100900304E5F0F09002A07401F0900307F04A
:10083100E49002FFF09002C2E0900300F002092A66
:100841009002A0E06402600302092A900297E0246A
:100851000180119002A0E06402600302092A900263
:1008610097E02404FFE433FE7C007D05120CDAAF2F
:1008710005EFF004900307F002092A9002A0E0FFBF
:10088100B4011D9002C2E0045403FEF0900307740A
:1008910001F0E49002FFF0A3EEF0E4900302804A3D
:1008A100EF6402600302092A900297E0FF607A6414
:1008B100016076900307E0FB24FFF582E43402F542
:1008C10083E02401804C9002A0E0FFB40123900258
:1008D100C2E024035403FEF09003077401F0E49096
:1008E10002FFF0A3EEF0E4900302F0A3F0A3F08086
:1008F10038EF64027033900297E0FF602C6401606E
:1009010028900307E0FB24FFF582E43402F583E03D
:100911002409FFE433FE7C007D0A120CDA74FF2BFC
:0C092100F582E43402F583EDF00213AD22
:10146F007E01E4FD7C0174A12EF582E43402F58344
:10147F00E0D394024004EF4480FFECC3940850047F
:10148F00EFC313FF0E0CECB409DC749C2DF582E452
:0D149F003402F583EFF0E4FF0DEDB404C757
:0114AC00221D
:10136700E4FFFE12000EE49002EFF09002EFE0FFC0
:101377007E002498F582E43402F583E0FD121642DC
:101387009002EFE0FF7E0012165B9002EFE02498D8
:10139700F582E43402F583EFF09002EFE004F0E029
:0513A700C3940340C6E1
:0113AC00221E
:1012D900E49002EFF09002EFE0FFC3940350377EF1
:1012E9000012165B9002EFE0FE2498F582E43402C6
:1012F900F583EFF074982EF582E43402F583E0B4B7
:10130900FF0C74982EF582E43402F583E4F0900220
:06131900EFE004F080BFCC
:01131F0022AB
:0C172E0030090812146F1206F1C20922E3
:0A1750003007069002C4E004F02206
:101320002009433007399002C4E0FFC3940F400AFC
:10133000EF941C5005E49002C3F09002C3E024A196
:10134000F582E43402F583EFF0E49002C4F09002F9
:10135000C3E004F0E0B4210EC207D209E4F022D2C7
:0713600007E49002C4F02233
:10168B00538E7F5389F0438901758AD7758CFDC2C0
:06169B008DD288D2A822C6
:0C03F9004902FF000000000000000000AE
:1013AD00C2A37F801217457F057E0012175AE49065
:1013BD0002EFF09002EFE0FFC39409501E74FF2F6F
:1013CD00F582E43402F583E0FF1217457F057E00B8
:1013DD0012175A9002EFE004F080D87FFE121745E5
:0213ED00D2A389
:0113EF0022DB
:1016B7007F099002FFE4F0A3DFFC9003077408F0B2
:0116C7002200
:01000A0022D3
:0D171400E4F5C7F5C5F5C675C380F5C42220
:10165B0075C78375C5018FC4EEF5C375C65A75C6BC
:07166B00A500AFC212171425
:011672002255
:1016420075C78375C5028FC4EEF5C3AF058FC2752A
:09165200C65A75C6A50002171462
:10000E0075C78375C5038FC4EEF5C375C65A75C61D
:05001E00A5000217140B
:10040500420294000041028F0059014000000000A3
:1004150000000000000000000000000000000000D7
:100425000000000000C100C182C105C104C101C1B5
:100435000342028D000042000E00004202920000BD
:10044500612E015F000000000000000000000000B8
:100455000000000000000000000000000000000097
:100465000000000000000000000000000000000087
:100475000000000000000000000000000000000077
:100485000000000000000000000000000000000067
:100495000000000000000000000000000000000057
:1004A5000000000000000000000000000000000047
:1004B5000000000000000000000000000000000037
:1004C5000000000000000000000000000000000027
:1004D5000000000000000000000000000000000017
:1004E5000000000000000000000000000000000007
:1004F50000000000000000000000000000000000F7
:1005050000000000000000000000000000000000E6
:1005150000000000000000000000000000000000D6
:1005250000000000000000000000000000000000C6
:1005350000000000000000000000000000000000B6
:1005450000000000000000000000000000000000A6
:100555000000000000000000000000000000000096
:100565000000000000000000000000000000000086
:100575000000480000000000000000000041015A92
:100585000042013E000042013C0000440009000019
:10059500000041000D004100080041015900612C97
:1005A5000010000000000000000000000000000036
:1005B5000000000000000000000000000000000036
:1005C5000000000000000000000000000000000026
:1005D5000000000000000000000000000000000016
:1005E5000000000000000000000000000000000006
:1005F50000000000000000000000000000000000F6
:1006050000000000000000000000000000000000E5
:1006150000000000000000000000000000000000D5
:1006250000000000000000000000000000000000C5
:1006350000000000000000000000000000000000B5
:1006450000000000000000000000000000000000A5
:100655000000000000000000000000000000000095
:100665000000000000000000000000000000000085
:100675000000000000000000000000000000000075
:100685000000000000000000000000000000000065
:100695000000000000000000000000000000000055
:1006A5000000000000000000000000000000000045
:1006B5000000000000000000000000000000000035
:0E06C500000000000000000000000000000027
:1016D900C2B6C2AC8F993099FDC299D2ACD2B622AA
:081764008F993099FDC2992212
:1016C800E4F5AF8F9BE59A30E1FB539AFD75AF01C6
:0116D80022EF
:0A173A007F19900140E4F0A3DFFCEA
:011744002282
:03002300020B18B5
:100B1800C0E0C0F0C083C082C0D075D000C000C0A3
:100B280004C006C007209803020C6AC298E59954CD
:100B38008E6480703FE599B4800C9002907401F047
:100B480090028D020C00E599B4810990029074031B
:100B5800F0020C6FE599B490099002907405F002C8
:100B68000C6FE59964916003020C6F900290740811
:100B7800F0020C6F900290E0FEB4011A900298E027
:100B8800900290B5990B7402F07FFE1216C8020C01
:100B98006FE4F0020C6FEEB40314E599640160038E
:100BA800020C6F9002907404F0900294804A9002B4
:100BB80090E0FFB4042FE59964FE600FC39002959E
:100BC800E09408900294E094004005D205020C6F6E
:100BD800900294E475F001120D45FC740025F0F5BF
:100BE800827400804FEFB40515E599640170789020
:100BF80002907406F090013CE4F0A3F08069900242
:100C080090E0FFB40636E59964FE6011C390013D9B
:100C1800E0941990013CE0648094804004D2008004
:100C28004690013CE475F001120D45FC744025F036
:100C3800F58274013CF583E599F0802BEFB4080F39
:100C4800900298E0B599209002907409F08018906D
:100C58000290E0B4091190028FE599F0A3740AF0AC
:100C68008005309902C299D007D006D004D000D0B0
:0A0C7800D0D082D083D0F0D0E0325B
:0300430002105F49
:10105F00C0E0C0F0C083C082C0D075D000C000C057
:10106F0001C002C003C004C005C006C007E59A3026
:10107F00E063539AFE900290E0FF64026005EF6414
:10108F00077052900291E0FF7014E59BB4FD087455
:10109F0001F090013E801F900291E4F08037EFB491
:1010AF000133E59BB4FE15900290E0B402031211D8
:1010BF0093D203900290E4F0A3F0801990013EE4E4
:1010CF0075F001120D45FE745F25F0F58274013E37
:1010DF00F583E59BF0E59A30E103539AFDD007D0F5
:1010EF0006D005D004D003D002D001D000D0D0D08C
:0810FF0082D083D0F0D0E03272
:08176C00E490015FF0A3F022FC
:1011930090015FE075F003A49002E8F0121792C289
:1011A300ACC2B67599FD3099FDC299E4FFFE74D4C3
:1011B3002FF582E43402F583E0F5993099FDC29965
:1011C3000FBF00010EEF64064E70E3E4FEFF9002D2
:1011D300E8E02402FDE433FCC3EF9DEE9C50197458
:1011E3005F2FF58274013EF583E0F5993099FDC2D6
:1011F300990FBF00010E80D67599FE3099FDC299F3
:04120300D2B6D2ACE1
:0112070022C4
:03000B0002158F4C
:10158F00C0E0C0F0C083C082C0D075D008758AD7C4
:10159F00758CFD12175020040E90028EE004F0702F
:1015AF000690028DE004F0D0D0D082D083D0F0D05E
:0215BF00E03218
:030003000214AD37
:1014AD00C0E0C0F0C083C082C0D075D000C000C005
:1014BD0001C002C003C004C005C006C0071213203E
:1014CD00D007D006D005D004D003D002D001D00073
:0B14DD00D0D0D082D083D0F0D0E0321D
:10120800E4F595759601F5B175B240C2A0D2B690D5
:101218000290F0A3F012177C759850438E40538EBD
:10122800FE53890F758BE0758DFEC2ABD28E759A11
:1012380050438E0475D7E075D6FE438E1075AF0106
:10124800538E7F5389F0438901758AD7758CFDC207
:101258008DD2A9D28CD288D2A81212D91217987519
:0A126800B71075B810D2ACD2AF2257
:10092D00E49002EFF0A3F0A3F0A3F0D2019002F750
:10093D00120D78000000019002FB7401F0A3740009
:10094D00F0A3740DF07F047E007D007C00120FA9D2
:10095D009002F7120D78000000019002FB7401F077
:10096D00A37400F0A37408F07F087E007D007C0066
:10097D00120FA990000DE0FF6003B4FF07E4900093
:10098D000DF08009EFC3941E4003020B1790015F19
:10099D00E075F003A4900159F0D394005003020BBD
:1009AD0015B2B5121792E49002EFF0A3F09002EF9A
:1009BD00E0FEA3E0FFC39406EE9400503474D42FF0
:1009CD00F582E43402F583E0FF9002F1E475F00165
:1009DD00120D45FC741025F0F58274003CF583EF83
:1009ED00F09002F0E004F070069002EFE004F08069
:1009FD00BCE49002EFF0A3F0900159E02402FFE473
:100A0D0033FE9002EFE0FCA3E0FDC39FEC9E50345B
:100A1D00745F2DF58274013CF583E0FF9002F1E4E3
:100A2D0075F001120D45FC741025F0F58274003C33
:100A3D00F583EFF09002F0E004F070069002EFE025
:100A4D0004F080B49002F1E475F001120D45FE74CE
:100A5D001025F0F58274003EF58374FEF090000DC4
:100A6D00E0C454F0FEE42400FFEE3410FEE4FCFD7F
:100A7D0012143090000DE0C454F0FEE42400FFEE9B
:100A8D003410FEE4FCFDC004C005C006C007900292
:100A9D00F7120D780000012C9002FB7401F0A37485
:100AAD0000F0A37410F0D007D006D005D004120EBC
:100ABD00C390000DE004F07F007E007D007C0012ED
:100ACD0014309002F7120D78000000019002FB74B3
:100ADD0001F0A37400F0A37408F07F087E007D0080
:100AED007C00120EC39002F7120D780000000190E9
:100AFD0002FB7401F0A37400F0A3740DF07F047E6B
:0A0B0D00007D007C00120EC3C2013F
:010B170022BB
:0E16E9007E027F2C900010E4F0A3DFFCDEFAFE
:0116F70022D0
:10004600E49002EBF0A3F0C2B4C2B512173A121252
:100056000812179512172E30006C900140E0600CC4
:10006600D2A0900009120D7800030D40C2A27F8035
:10007600121745E49002E9F0A3F0900140E075F014
:1000860002A4FF9002E9E0FCA3E0FDD39FEC95F00B
:10009600502674402DF582E43401F583E0FF1217F3
:1000A600457F057E0012175A9002EAE004F070CAF6
:1000B6009002E9E004F080C27FFE121745D2A2E466
:1000C600900290F0C20030055B7B017A0079001245
:1000D600155A1217922008451216B7E49002E9F055
:1000E600A3F09002E9E0FEA3E0FFC39406EE9400BD
:1000F600502874E22FF582E43402F583E0FE74FFA3
:100106002FF582E43402F583EEF09002EAE004F083
:1001160070D09002E9E004F080C81213ADE49002BA
:1001260090F0C205900290E0640A6003020223D2B6
:1001360004C2B6C2AC7FFD1217649002F7120D78A6
:10014600000000019002FB7401F0A37400F0A37498
:1001560008F07F087E007D007C00120FA990000841
:10016600E0FF1217649002F7120D7800000001906C
:1001760002FB7401F0A37400F0A3740DF07F047EFB
:10018600007D007C00120FA990000DE0FF1217649D
:1001960090000DE0FFD39400401812176490028F70
:1001A600E0FF1217647FF912176490000DE014F057
:1001B60080DE7FFE121764D2ACD2B6B2B47F007E68
:1001C600007D007C001214309002F7120D780000BA
:1001D60000019002FB7401F0A37400F0A3740DF00B
:1001E6007F047E007D007C00120EC3900008E004B0
:1001F600547FF09002F7120D78000000019002FB88
:100206007401F0A37400F0A37408F07F087E007DEB
:10021600007C00120EC3E4900290F0C20420030397
:100226000203663008030203661216B7900160E007
:10023600FF90015FE0FEB507179002FF740CF09087
:100246000160E0FD75F00A84900303F0ED020359A6
:100256009002EEEFF0EE75F003A4149002EDF0902C
:1002660002EEE0FFC36480948040279002EDE0FE3A
:10027600D39400401D745F2EF582E43401F583E0CB
:1002860030E002800D9002EDE024FDF0A3E014F0D2
:1002960080CDC3EF6480948050030203459000092B
:1002A600120D7800030D40D2A09002FF7411F09059
:1002B60002EDE0FD2460F582E43401F583E075F09B
:1002C60080A4FF74612DF582E43401F583E07C009F
:1002D6002FFEEC35F090000EF0A3CEF090000EE06D
:1002E600FAA3E0FB7C037DE8FFAE02120CDA900372
:1002F60001EFF07C037DE8AF03AE02120CDA7E005C
:100306007F64CFCDCFCECCCE120CDAA3EFF0900027
:100316000EA3E07C007D64FFAE02120CDA7E007F45
:100326000ACFCDCFCECCCE120CDA900303EFF07C01
:10033600007D0AAF03AE02120CDAA3EDF0801C902A
:1003460002FF740CF0900160E0FF75F00A849003E0
:0B03560003F0EF75F00A84A3E5F0F05F
:100361001213ADC203D390028EE094E090028DE0AF
:10037100942E4019D204E4F0A3F012092D12176C47
:100381009002907407F07FFE1216C8C204E47F0247
:10039100FEFDFC900009E0F8A3E0F9A3E0FAA3E078
:1003A100FBC3120D5B4025900009E0FCA3E0FDA317
:1003B100E0FEA3E024FFFFEE34FFFEED34FFFDEC91
:1003C10034FFFC900009120D6C02005AC2A0020019
:0103D1005AD1
:1006D3004802DA0D0A0A280B3B28004602D4000020
:0D06E300000000004602E2000000000000E0
:0916F800C2A4C2A5121701D2A57B
:051701000000000022C1
:10002600D2A4D2A512170120A402C322C2A4121779
:0D0036000130A402C322C2A5121701D3227B
:061783001216F8D2A422A8
:061789001216F8C2A522B1
:08177400D2A41216FAC2A5224C
:1016A1007FFFC2A5D2A41216FC30A406DF02C2A598
:0516B100C322C2A5D315
:0116B6002211
:101523007E08300B19AD061EED6010C2A500EF3327
:1015330092A4EF25E0FF1216FC80EAC2A522AD06B5
:101543001EED6010C2A500EF1392A4EFC313FF12A8
:0615530016FC80EAC2A5AF
:01155900226F
:1015E8007F08E4FED2A4AD071FED600FEEC313FE23
:0F15F8001216FA30A4F04480FE80EBC2A5AF06B5
:0116070022C0
:100DA9001200264003020EC2D20B7F6512152312D0
:100DB90016A14003021783E4FC1215E874CC2CF544
:100DC90082E43402F583EFF0EC64066003121789BC
:100DD9000CECB407E41217741217839002D0E0FFE9
:100DE900C4540FFEEF540F9002D4F0EE75F00AA42C
:100DF900FFE02FF0E0C394284004E024D8F09002EB
:100E0900D4E0FF75F00A849002E2F0EF75F00A84ED
:100E1900A3E5F0F09002D1E0FFC4540FFEEF540FA8
:100E29009002D5F0EE75F00AA4FFE02FF0E0FF750F
:100E3900F00A849002E4F0EF75F00A84A3E5F0F07B
:100E49009002D2E0FFC4540FFEEF540F9002D6F087
:100E5900EE75F00AA4FFE02FF0E0FF75F00A849028
:100E690002E6F0EF75F00A84A3E5F0F09002CCE019
:100E7900FFC4540FFEEF540F9002D7F0EE75F00A3D
:100E8900A4FFE02FF09002CDE0FFC4540FFEEF5411
:100E99000F9002D8F0EE75F00AA4FFE02FF090024F
:100EA900CEE0FFC4540FFEEF540F9002D9F0AF0605
:090EB900EF75F00AA4FFE02FF030
:010EC200220D
:1014E8001200265035D20B7F601215231216A14028
:1014F800028024C20B7F021215231216A112178331
:10150800120026D20B7F621215231216A1C20BE419
:0B151800FF1215231216A112178322E8
:10127200E4FC74DA2CF582E43402F583E0FF75F0C5
:101282000A84FEEF75F00A8474CC2CF582E43402F1
:10129200F583E5F0F0EEC454F0FF74CC2CF582E453
:1012A2003402F583E02FF00CECB407C6120026D20C
:1012B2000B7F641215231216A1E4FC74CC2CF58268
:1012C200E43402F583E0FFC20B1215231216A10CBF
:0712D200ECB407E7021783EB
:03178F00021272D1
:03179200020DA99C
:031795000214E853
:0B155A009002EFEBF0A3EAF0A3E9F031
:10156500E4FF9002EFE0FBA3E0FAA3E0F98F8275B8
:101575008300120C9BFE74DA2FF582E43402F583A6
:0A158500EEF00FEFB408DB02178F41
:0A175A00EF1F70011E144E70F722FD
:10167300AD07AC06ED1DAE0470011C4E60097FE89A
:081683007E0312175A80ED22CC
:07177C0075CED075CDC0222F
:0B1745008FCFE5CD30E7FB75CDC02253
:0D170600E4F5CFE5CD30E7FBAFCF75CDC0EA
:0117130022B3
:0C1721008FCFE5CD30E7FBAFCF75CDC01A
:01172D002299
:1013F000C2927FAB121721E4FF121721E4FF1217EC
:1014000021E4FF121721E4FF121721900308EFF0E7
:10141000E4FF121721E4FF121721D292900308E093
:0F142000B49D07EFB47F03D38001C3920CA20CDD
:01142F00229A
:1015C100C2927F0A7E0012175A7F05121721E4FF8B
:1015D1001217219002FEEFF0D2927F0A7E001217BD
:0615E1005A9002FEE01327
:0115E70022E1
:101626001215C140FBC2927F0A7E0012175A7F062E
:0C163600121721D2927F0A7E0002175A80
:10160800300C1A121626C2927F0A7E0012175A7FD1
:0E161800C7121721D2927F0A7E0012175A22A3
:100FA9009002F3120D6C200C0302105E1215C14061
:100FB900FBC2927F0A7E0012175A7F0312172190F3
:100FC90002F4E0FF1217219002F5E0FF12172190B9
:100FD90002F6E0FF1217219002F7E0FCA3E0FDA35F
:100FE900E0FEA3E0FFEC4D4E4F6061E4FF121721D4
:100FF9009002FBE0FBA3E0FAA3E0F9EF120CC89022
:1010090002F3E0FCA3E0FDA3E0FEA3E02401FFE47A
:101019003EFEE43DFDE43CFC9002F3120D6C9002AF
:10102900FCE475F001120D2F9002F7E0FCA3E0FD3E
:10103900A3E0FEA3E024FFFFEE34FFFEED34FFFD45
:10104900EC34FFFC9002F7120D6C808BD2927F0A70
:061059007E0012175A226E
:100EC3009002F3120D6C200C03020FA81215C140FF
:100ED300FB9002F7E0FCA3E0FDA3E0FEA3E0FFEC40
:100EE3004D4E4F7003020FA8121626C2927F0A7E40
:100EF3000012175A7F021217219002F4E0FF121713
:100F0300219002F5E0FF1217219002F6E0FF12177D
:100F1300219002F7E0FCA3E0FDA3E0FEA3E0FFECD9
:100F23004D4E4F6074A3E0FBA3E0FAA3E0F9120C6B
:100F330082FF1217219002F3E0FCA3E0FDA3E0FE81
:100F4300A3E02401FFE43EFEE43DFDE43CFC90020B
:100F5300F3120D6C9002FCE475F001120D2F900258
:100F6300F7E0FCA3E0FDA3E0FEA3E024FFFFEE34E3
:100F7300FFFEED34FFFDEC34FFFC9002F7120D6C25
:100F83009002F3A3A3A3E0FFE4FEFDFCFBFAF9F850
:100F9300C3120D5B6003020F14D2927F0A7E00120C
:060FA300175A020ED422D1
:101430009002F3120D6C121626C2927F0A7E0012E1
:10144000175A7FD71217219002F4E0FF121721904C
:1014500002F5E0FF1217219002F6E0FF121721D2E9
:0F146000927F0A7E0012175A7F327E00021673A7
:03179800D20C224E
:03000000021107E3
:0C110700787FE4F6D8FD75812102114EBE
:100C8200BB010689828A83E0225002E722BBFE0270
:090C9200E32289828A83E49322A3
:100C9B00BB010CE58229F582E5833AF583E022500E
:100CAB0006E92582F8E622BBFE06E92582F8E22258
:0D0CBB00E58229F582E5833AF583E4932272
:100CC800BB010689828A83F0225002F722BBFE010B
:020CD800F32205
:100CDA00BC000BBE0029EF8DF084FFADF022E4CCFE
:100CEA00F875F008EF2FFFEE33FEEC33FCEE9DECC7
:100CFA00984005FCEE9DFE0FD5F0E9E4CEFD22ED0D
:100D0A00F8F5F0EE8420D21CFEADF075F008EF2F56
:100D1A00FFED33FD4007985006D5F0F222C398FD47
:050D2A000FD5F0EA22E4
:100D2F00C5F0F8A3E028F0C5F0F8E582158270024F
:060D3F001583E038F022EC
:100D4500A3F8E0C5F025F0F0E58215827002158361
:060D5500E0C838F0E822BE
:100D5B00EB9FF5F0EA9E42F0E99D42F0E89C45F0EE
:010D6B002265
:0C0D6C00ECF0A3EDF0A3EEF0A3EFF022FA
:100D7800A8828583F0D083D082120D8F120D8F1236
:100D88000D8F120D8FE473E493A3C583C5F0C5835B
:100D9800C8C582C8F0A3C583C5F0C583C8C582C8C5
:010DA8002228
:10111300020046E493A3F8E493A34003F68001F2AC
:1011230008DFF48029E493A3F85407240CC8C333DD
:10113300C4540F4420C8834004F456800146F6DFAC
:10114300E4800B01020408102040809003D2E47E67
:10115300019360BCA3FF543F30E509541FFEE493A1
:10116300A360010ECF54C025E060A840B8E493A368
:10117300FAE493A3F8E493A3C8C582C8CAC583CA93
:10118300F0A3C8C582C8CAC583CADFE9DEE780BE4B
:0106F0000009
:00000001FF
