:0400060000010203F0
:10004600014C00C108C109C107C106014B000128C6
:100056000044032C00000000014A00012300012295
:010066000099
:1005FD00E52624F970030207AB24F27003020769A4
:10060D0024D5700302073624FC70030207451460DD
:10061D0003020808E528701AD20875280190032BEB
:10062D0004F0E4900323F0A3E54AF0E4A3F0A30261
:10063D0007CBE52864017058752802E54A9000063D
:10064D0093F522E4F523E5230490032BF090032387
:10065D007401F0A3E54AF0242CF582E43403F5830C
:10066D00E0FF75F06484900326F0EF75F00A847551
:10067D00F00A84A3E5F0F0742C254AF582E43403E6
:10068D00F583E075F00A84900328E5F0F002080880
:10069D00E52864026003020808E54AB4030BC208AA
:1006AD00E4F5281212C002080890032BE0640160E3
:1006BD002B900327E075F00AA4FF900326E075F058
:1006CD0064A42FFF900328E02FFF742C254AF58298
:1006DD00E43403F583EFF012101A8038742C254A98
:1006ED00F582E43403F583E0FF75F064849003260E
:1006FD00F0EF75F00A8475F00A84A3E5F0F0742C20
:10070D00254AF582E43403F583E075F00A849003FD
:10071D0028E5F0F075280190032B7401F0E49003A7
:10072D0023F0A3E54AF0020808E5286402600302FD
:10073D000808E5232401800DE52864026003020802
:10074D0008E5232404FFE433FE7C007D05120AE74F
:10075D008D23E5230490032BF0020808E528B4014E
:10076D001CE54A045403F54A90032B7401F0E49000
:10077D000323F0A3E54AF0E49003268041E52864C5
:10078D00027078E52360746401607090032BE0FBC8
:10079D002423F582E43403F583E024018046E52823
:1007AD00B40122E54A24035403F54A90032B740146
:1007BD00F0E4900323F0A3E54AF0E4900326F0A3C0
:1007CD00F0A3F08036E52864027030E523602C64D8
:1007DD0001602890032BE0FB2423F582E43403F51C
:1007ED0083E02409FFE433FE7C007D0A120AE774DE
:0E07FD00232BF582E43403F583EDF0021105A1
:1011AA007E01E4FD7C0174292EF8E6D39402400303
:1011BA00430780ECC394085004EFC313FF0E0CBC22
:0E11CA0009E474242DF8A607E4FF0DBD04D639
:0111D80022F4
:10101A00E4FFFE12000EE4F569AF697E00742C2528
:10102A0069F582E43403F583E0FD121294AF697E18
:10103A0000121267742C2569F582E43403F583EFF4
:0A104A00F00569E569C3940340CF87
:011054002279
:100FDD00E4F569AF697E00121267742C2569F582FC
:100FED00E43403F583EFF0742C2569F582E43403C2
:100FFD00F583E0B4FF0D742C2569F582E43403F517
:0C100D0083E4F00569E569C3940340C763
:0110190022B4
:0C1358003009081211AA1205FDC209227A
:0613A300300702054C2298
:10117500200931300729E54CC3940F4009E54C940B
:101185001C5003E4F54B7429254BF8A64CE4F54CAB
:10119500054BE54BB4210DC207D209E4F54B22D22C
:0511A50007E4F54C22F7
:10127E00538E7F5389F0438901758AD7758CFDC2D1
:06128E008DD288D2A822D7
:0C0067004903230000000000000000001E
:10110500C2A07F8012136F7F057E0012137AE4F56B
:101115006974232569F582E43403F583E0FF12132E
:101125006F7F057E0012137A0569E569C39409404E
:08113500E07FFE12136FD2A04F
:01113D00228F
:1012C0007F09900323E4F0A3DFFC90032B7408F064
:0112D00022FB
:01000A0022D3
:0D133E00E4F5C7F5C5F5C675C380F5C422FA
:1012670075C78375C5018FC48EC375C65A75C6A564
:0612770000AFC212133E9D
:01127D00224E
:1012940075C78375C5028FC48EC38DC275C65A7552
:0612A400C6A50002133E86
:10000E0075C78375C5038FC48EC375C65A75C6A5CD
:04001E000002133E8B
:100073000262000060A101340000000000000000E3
:10008300000000000000000000000000000000006D
:10009300000000000000000000000000000000005D
:1000A300000000000000000000000000000000004D
:1000B300000000000000000000000000000000003D
:1000C300000000000000000000000000000000002D
:1000D300000000000000000000000000000000001D
:1000E300000000000000000000000000000000000D
:1000F30000000000000000000000000000000000FD
:1001030000000000000000000000000000000000EC
:10011300000000000000000000C100C182C105C151
:1001230004C101C103025B0000024F000002600032
:1001330000612E01D5000000000000000000000057
:1001430000000000000000000000000000000000AC
:10015300000000000000000000000000000000009C
:10016300000000000000000000000000000000008C
:10017300000000000000000000000000000000007C
:10018300000000000000000000000000000000006C
:10019300000000000000000000000000000000005C
:1001A300000000000000000000000000000000004C
:1001B300000000000000000000000000000000003C
:1001C300000000000000000000000000000000002C
:1001D300000000000000000000000000000000001C
:1001E300000000000000000000000000000000000C
:1001F30000000000000000000000000000000000FC
:1002030000000000000000000000000000000000EB
:1002130000000000000000000000000000000000DB
:1002230000000000000000000000000000000000CB
:1002330000000000000000000000000000000000BB
:1002430000000000000000000000000000000000AB
:10025300000000000000000000000000000000009B
:1002630000000048000000000000000000000156EC
:10027300000253000002510000024D00000155002E
:10028300612C0008000000000000000000000000D6
:10029300000000000000000000000000000000005B
:1002A300000000000000000000000000000000004B
:1002B300000000000000000000000000000000003B
:1002C300000000000000000000000000000000002B
:1002D300000000000000000000000000000000001B
:1002E300000000000000000000000000000000000B
:1002F30000000000000000000000000000000000FB
:1003030000000000000000000000000000000000EA
:1003130000000000000000000000000000000000DA
:1003230000000000000000000000000000000000CA
:1003330000000000000000000000000000000000BA
:1003430000000000000000000000000000000000AA
:10035300000000000000000000000000000000009A
:10036300000000000000000000000000000000008A
:10037300000000000000000000000000000000007A
:10038300000000000000000000000000000000006A
:10039300000000000000000000000000000000005A
:1003A300000000000000000000000000000000004A
:1012F300C2B6C2AC8F993099FDC299D2ACD2B62294
:081384008F993099FDC29922F6
:1012D100E4F5AF8F9BE59A30E1FB539AFD75AF01C1
:0112E10022EA
:0A1364007FA1900134E4F0A3DFFC48
:01136E00225C
:0300230002095A75
:10095A00C0E0C083C082C0D075D000C006C00720E6
:10096A009803020A6BC298E599548264807036E54E
:10097A0099B4800C755D01755B00755C00020A70A4
:10098A00E599B48106755D03020A70E599B4840697
:10099A00755D05020A70E59964856003020A70753F
:1009AA005D08020A70E55DB4011A90032CE0B5995E
:1009BA000DB2B4755D027FFE1212D1020A70755D26
:1009CA0000020A70E55DB40313E59964016003024D
:1009DA000A70755D04F562F563020A70E55DB40498
:1009EA0028E59964FE600BC3E5639408E562940008
:1009FA004004D20580700563E563AE627002056249
:100A0A00142400F58274008041E55DB4050FE59970
:100A1A0064017052755D06F551F5528049E55DB481
:100A2A000630E59964FE600DC3E55294A1E5516470
:100A3A008094804004D200802D0552E552AE517058
:100A4A00020551142434F58274013EF583E599F0C8
:100A5A008014E55DB4080FE599B4010A755D098053
:100A6A0005309902C299D007D006D0D0D082D0835F
:030A7A00D0E03297
:03004300020BFAB3
:100BFA00C0E0C0F0C083C082C0D075D000C000C0C1
:100C0A0001C002C003C004C005C006C007E59A308F
:100C1A00E063539AFEE55D64026006E55D64077071
:100C2A0054E55F455E7015E59BB4F00E755E007580
:100C3A005F01755300755400803B801AE55F6401BB
:100C4A00455E7031E59BB4FE15E55DB40203120EF4
:100C5A0055D203755D00755E00755F0080170554F7
:100C6A00E554AE53700205531424D5F58274013E3F
:100C7A00F583E59BF0E59A30E103539AFDD007D05E
:100C8A0006D005D004D003D002D001D000D0D0D0F5
:080C9A0082D083D0F0D0E032DB
:08138C00E49001D5F0A3F0226A
:100E55009001D5E075F003A4F5641213BBC2ACC2D2
:100E6500B67599F03099FDC299E4FFFE74122FF51D
:100E750082E43403F583E0F5993099FDC2990FBFFB
:100E850000010EEF64034E70E3E4FEFFE564240207
:100E9500FDE433FCC3EF9DEE9C501974D52FF5820C
:100EA50074013EF583E0F5993099FDC2990FBF00B5
:100EB500010E80D87599FE3099FDC299D2B6D2AC93
:010EC500220A
:03000B000211D906
:1011D900C0E0C0F0C083C082C0D075D008758AD77E
:1011E900758CFD1213A3200408055CE55C700205EB
:0C11F9005BD0D0D082D083D0F0D0E032A8
:0300030002105593
:10105500C0E0C0F0C083C082C0D075D000C000C061
:1010650001C002C003C004C005C006C00712117547
:10107500D007D006D005D004D003D002D001D000CF
:0B108500D0D0D082D083D0F0D0E03279
:100F2B00E4F5B175B240D2B6F55DF55EF55F12131F
:100F3B009C759850438E40538EFE53890F758BE0F2
:100F4B00758DFEC2ABD28E759A50438E0475D7E069
:100F5B0075D6FE438E1075AF01538E7F5389F043C8
:100F6B008901758AD7758CFDC28DD2A9D28CD28896
:100F7B00D2A8120FDD75B71075B810D2ACD2AF2254
:0E0F8B00C20C1210CB300C04C2B48002D2B4DF
:100F9900751078E4F511757304F572F571F570F54E
:100FA90074757500757610FFFEFDFC120CA2E475D0
:100FB9007304F572F571F570F57475750075761130
:100FC900FFFEFDFC120DD0E510B51104C2B480027C
:020FD900D2B490
:020FDB0080FE96
:10080B00E4F569F56AF56BD201757302F572F57152
:10081B00F570F57475750075764D7F04FEFDFC1251
:10082B000DD0E54E454D600AE54EB4FF0CE54DB4D9
:10083B00FF07E4F54DF54E8025D3E54E941EE54DAF
:10084B009400401AE4757302F572F571F570F57446
:10085B0075750075764D7F04FEFDFC020CA29001B0
:10086B00D5E075F003A4F555D394004002B2B5E57D
:10087B0055D3940050030209571213BBE4F5697466
:10088B00122569F582E43403F583E0FF056BE56B14
:10089B00AC6A7002056A142408F58274003CF58377
:1008AB00EFF00569E569B403D6E4F569E555240273
:1008BB00FFE433FEC3E5699FEE6480F874809850C3
:1008CB002774D52569F582E43401F583E0FF056BC8
:1008DB00E56BAC6A7002056A142408F58274003C5F
:1008EB00F583EFF0056980C4056BE56BAE6A7002AA
:1008FB00056A142408F58274003EF58374FFF0AE8C
:10090B004DAF4E7C017D2C120AD5E42FFFEE340146
:10091B00FEE41CFD75732C757201F571F570757421
:10092B0001757500757608120CA2054EE54E700226
:10093B00054DE4757302F572F571F570F574757507
:0E094B000075764D7F04FEFDFC120CA2C20169
:01095900227B
:1003CE00E4F567F568F54DF54E757302F572F57146
:1003DE00F570F57475750075764D7F04FEFDFC1293
:1003EE000CA2C2B4C2B5121364120F2B1213BE129A
:1003FE00135830004CC2A27F8012136FE4F565F5DE
:10040E0066900134E075F002A4FFD3E5669FE565C2
:10041E0095F0502174342566F582E43401F583E0BD
:10042E00FF12136F7F057E0012137A0566E5667064
:10043E00D0056580CC7FFE12136FD2A2E4F55DC2AB
:10044E00003005447B017A0079001212051213BBAD
:10045E001212C0E4F565F566AF66741D2FF582E4E1
:10046E003403F583E0FE74232FF582E43403F58321
:10047E00EEF00566E566700205656406456570D8A2
:10048E00121105E4F55DC205E55D64097066C2B63C
:10049E00C2AC75732C757201F571F57075740175BA
:1004AE007500757608FF7E01FDFC120DD0E4F56532
:1004BE00F56674082566F58274003565F583E0F4FB
:1004CE006026C3E566942CE5659401501B0566E530
:1004DE0066AE6570020565142408F58274003EF55B
:1004EE0083E0FF12138480CA7FFE121384D2ACD233
:1004FE00B6E4F55D2003030205D51212C09001D6B5
:10050E00E0FF9001D5E0FE900323B5071C740CF0BC
:10051E009001D6E0FD75F00A84900327F0ED75F09A
:10052E000A84A3E5F0F00205D0740EF0EFFDEEC3E1
:10053E009DFFE49400FE7C007D03120AD5EF24FF9C
:10054E00F561EE34FFF560FE74D62561F582740117
:10055E003EF583E075F080A4FFAEF074D72561F50B
:10056E008274013560F583E02FF550EC3EF54FFEB9
:10057E00AF507C037DE8120AE7900325EFF0AE4FF3
:10058E00AF507C037DE8120AE77E007F64CFCDCFAB
:10059E00CECCCE120AE7A3EFF0AE4FAF507C007D6B
:1005AE0064120AE77E007F0ACFCDCFCECCCE120AE0
:1005BE00E7A3EFF0AE4FAF507C007D0A120AE7A31F
:1005CE00EDF0121105C203D3E55C94E0E55B942EC9
:1005DE0050030203FDD204E4F55BF55C12080B1226
:0F05EE00138C755D077FFE1212D1C2040203FD4C
:1010CB00C2927FAB12134BE4FF12134BE4FF1213CC
:1010DB004BE4FF12134BE4FF12134B8F12E4FF127E
:1010EB00134BE4FF12134BD292E512B49D06BF7F54
:0910FB0003D38001C3920CA20C86
:0111040022C8
:1012E200C2927F0512134BE4FF12134BD292EF13FB
:0112F20022D9
:0F1313001212E240FBC2927F0612134BD29222BB
:10130300300C0C121313C2927FC712134BD29222CA
:100DD0008F6F8E6E8D6D8C6C300C791212E240FB31
:100DE000C2927F0B12134BAF6D12134BAF6E1213E7
:100DF0004BAF6F12134BE4FF12134BAF73AE72ADD8
:100E000071AC70EC4D4E4F6049E4FF12134BAB7464
:100E1000AA75A976EF120AC3E56F2401F56FE435D0
:100E20006EF56EE4356DF56DE4356CF56C74012589
:100E300076F576E43575F575E57324FFF573E5729F
:100E400034FFF572E57134FFF571E57034FFF5702C
:050E500080A9D29222EE
:100CA2008F6F8E6E8D6D8C6C200C03020D43AF73B3
:100CB200AE72AD71AC70EC4D4E4F7003020D43122B
:100CC2001313C2927F0212134BAF6D12134BAF6E0E
:100CD20012134BAF6F12134BAF73AE72AD71AC7098
:100CE200EC4D4E4F6056AB74AA75A976120A7DFF81
:100CF20012134BE56F2401F56FE4356EF56EE435A2
:100D02006DF56DE4356CF56C74012576F576E43598
:100D120075F575E57324FFF573E57234FFF572E539
:100D22007134FFF571E57034FFF570E56FFFE4FE95
:100D3200FDFCFBFAF9F8C3120B3C709CD292020C38
:020D4200B022DD
:0313B500D20C2235
:1003B3004803150D0A0A280A0A0A0043031200001B
:0A03C3000046031D000000000000CA
:09132200C2A4C2A512132BD2A52E
:05132B0000000000229B
:10002600D2A4D2A512132B20A402C322C2A4121357
:0D0036002B30A402C322C2A512132BD3222B
:0613A900121322D2A4225F
:0613AF00121322C2A52268
:08139400D2A4121324C2A52209
:1012AA007FFFC2A5D2A412132630A406DF02C2A56C
:0512BA00C322C2A5D310
:0112BF00220C
:10113E007E08300B19AD061EED6010C2A500EF3310
:10114E0092A4EF25E0FF12132680EAC2A522AD0677
:10115E001EED6010C2A500EF1392A4EFC313FF1291
:06116E00132680EAC2A571
:011174002258
:10122F007F08E4FED2A4AD071FED600FEEC313FEDF
:0F123F0012132430A4F043068080EBC2A5AF0643
:01124E00227D
:100B4D001200264003020BF9D20B7F6512113E12E3
:100B5D0012AA40030213A9E4FC12122F740A2CF5F9
:100B6D0082E43403F583EFF0EC640660031213AFF7
:100B7D000CBC07E51213941213A9E4FC740E2CF5AA
:100B8D0082E43403F583E0FFC4540FFEEF540FFFEE
:100B9D0074122CF582E43403F583EFF0EE75F00A50
:100BAD00A4FF74122CF582E43403F583E02FF07466
:100BBD000E2CF582E43403F583E0C4540FFFEC25CD
:100BCD00E0241DF582E43403F583EFF0740E2CF56B
:100BDD0082E43403F583E0540FFFEC25E0241EF589
:0C0BED0082E43403F583EFF00CBC0390AD
:010BF90022D9
:101090001200265035D20B7F6012113E1212AA4068
:1010A000028024C20B7F0212113E1212AA1213A94F
:1010B000120026D20B7F6212113E1212AAC20BE45A
:0B10C000FF12113E1212AA1213A92207
:100EC600E4FC74152CF582E43403F583E0FF75F039
:100ED6000A84FEEF75F00A84740A2CF582E4340362
:100EE600F583E5F0F0EEC454F0FF740A2CF582E4C5
:100EF6003403F583E02FF00CBC07C7120026D20B93
:100F06007F6412113E1212AAE4FC740A2CF582E4E4
:100F16003403F583E0FFC20B12113E1212AA0CBC79
:050F260007E80213A919
:0313B800020EC65C
:0313BB00020B4DD5
:0313BE000210908A
:061205008B698A6A896B07
:10120B00E4FFAB69AA6AA96B8F82758300120A96F9
:10121B00FE74152FF582E43403F583EEF00FBF084F
:04122B00E10213B811
:0A137A00EF1F70011E144E70F722E1
:10124F00AD07AC06ED1DAE0470011C4E60097FE8C2
:08125F007E0312137A80ED22D8
:07139C0075CED075CDC02213
:0B136F008FCFE5CD30E7FB75CDC0222D
:0D133000E4F5CFE5CD30E7FBAFCF75CDC0C4
:01133D00228D
:0C134B008FCFE5CD30E7FBAFCF75CDC0F4
:011357002273
:03000000020D44AA
:0C0D4400787FE4F6D8FD758176020D8BF7
:100A7D00BB010689828A83E0225002E722BBFE0277
:090A8D00E32289828A83E49322AA
:100A9600BB010CE58229F582E5833AF583E0225015
:100AA60006E92582F8E622BBFE06E92582F8E2225F
:0D0AB600E58229F582E5833AF583E4932279
:100AC300BB010689828A83F0225002F722BBFE0112
:020AD300F3220C
:100AD500EF8DF0A4A8F0CF8CF0A428CE8DF0A42E35
:020AE500FE22EF
:100AE700BC000BBE0029EF8DF084FFADF022E4CCF3
:100AF700F875F008EF2FFFEE33FEEC33FCEE9DECBC
:100B0700984005FCEE9DFE0FD5F0E9E4CEFD22ED01
:100B1700F8F5F0EE8420D21CFEADF075F008EF2F4B
:100B2700FFED33FD4007985006D5F0F222C398FD3C
:050B37000FD5F0EA22D9
:100B3C00EB9FF5F0EA9E42F0E99D42F0E89C45F00F
:010B4C002286
:100D50000203CEE493A3F8E493A34003F68001F2E8
:100D600008DFF48029E493A3F85407240CC8C333A4
:100D7000C4540F4420C8834004F456800146F6DF73
:100D8000E4800B0102040810204080900046E47EBD
:100D9000019360BCA3FF543F30E509541FFEE49368
:100DA000A360010ECF54C025E060A840B8E493A32F
:100DB000FAE493A3F8E493A3C8C582C8CAC583CA5A
:100DC000F0A3C8C582C8CAC583CADFE9DEE780BE12
:0103CD00002F
:00000001FF
