:100174003F065B4F666D7D077F6F777C395E7971D3
:100184003D76BF86DBCFE6EDFD87FFEFF7FCB9DEFA
:0C019400F9F1BDF6FEFDFBF7EFDFBF7FC9
:1001A0000410030C30C0011C08011A00011B004F91
:1001B000000000000000000000000000000000003F
:0101C000003E
:0800DA008B1D8A1E891F8D2079
:1000E200E4F521E521C39520505AE4F580E52190FD
:1000F200019893F5A07FF47E01120262E521AB1D07
:10010200AA1EA91FB51C0DF5827583001201479026
:100112000186800C8521827583001201479001744B
:1001220093F523E4F52274102522F8E65523F58091
:100132007FC87E001202620522E522C3940440E6D3
:040142000521809F74
:010146002296
:03004B00020003AD
:10000300C0E0C083C082C0D075D00875CDC0AFCF6B
:10001300EF24026009247E700A751B008015751A8F
:100023000180107400251BF582E43400F583E5CFCD
:0F003300F0051B75CF00D0D0D082D083D0E03243
:10021A00E4F5937594FFF58075A0FF12024AD2AFF8
:01022A0022B1
:1001E300E4FF74002FF582E43400F583E0FE741419
:0E01F3002FF8A6060FBF06EA900008E0F51CE4
:0102010022DA
:10022B007F06900000E4F0A3DFFC1201E3751C08CD
:01023B0022A0
:1001C20012021A12022BE51AB40109E4F51B1201FC
:1001D200E3E4F51A7B007A0079147D061200DA80D6
:0101E200E537
:0A026200EF1F70011E144E70F7220A
:10020200AD07AC06ED1DAE0470011C4E60097FE81F
:080212007E0312026280ED225E
:0D024A00E4F5CF75CDC075CE4043AF022264
:0B0257008FCFE5CD30E7FB75CDC02256
:0D023C00E4F5CFE5CD30E7FBAFCF75CDC0C9
:010249002292
:0300000002004EAD
:0C004E00787FE4F6D8FD75812302009550
:10014700BB010CE58229F582E5833AF583E022506D
:1001570006E92582F8E622BBFE06E92582F8E222B7
:0D016700E58229F582E5833AF583E49322D1
:10005A000201C2E493A3F8E493A34003F68001F2F9
:10006A0008DFF48029E493A3F85407240CC8C333A7
:10007A00C4540F4420C8834004F456800146F6DF76
:10008A00E4800B01020408102040809001A0E47E65
:10009A00019360BCA3FF543F30E509541FFEE4936B
:1000AA00A360010ECF54C025E060A840B8E493A332
:1000BA00FAE493A3F8E493A3C8C582C8CAC583CA5D
:1000CA00F0A3C8C582C8CAC583CADFE9DEE780BE15
:0101C100003D
:00000001FF
