:0400060000010203F0
:10004600014C00C10AC10BC109C108014B000128BE
:100056000044032700000000014A0001230001229A
:010066000099
:1003D300E52624F9700302058E24F2700302054A10
:1003E30024D5700302051624FC700302052514604E
:1003F300030205EDE528701FD20A75280190032634
:100403007403F0E490031EF0A3F0A3F0A3E54AF015
:10041300E4A3F0A30205B0E5286401705B7528022C
:10042300E54A90000693F522E4F523E5232403909F
:100433000326F090031E7401F0900321E54AF02493
:1004430027F582E43403F583E0FF75F064849003B9
:1004530023F0EF75F00A8475F00A84A3E5F0F074D5
:1004630027254AF582E43403F583E075F00A849086
:100473000325E5F0F00205EDE528640260030205BB
:10048300EDE54AB4030BC20AE4F52812111502057F
:10049300ED900326E06403602B900324E075F00ADB
:1004A300A4FF900323E075F064A42FFF900325E0DD
:1004B3002FFF7427254AF582E43403F583EFF01206
:1004C3000EF780387427254AF582E43403F583E078
:1004D300FF75F06484900323F0EF75F00A8475F0E0
:1004E3000A84A3E5F0F07427254AF582E43403F582
:1004F30083E075F00A84900325E5F0F075280190F8
:1005030003267403F0E490031EF0900321E54AF000
:100513000205EDE528640260030205EDE5232401ED
:10052300800DE528640260030205EDE5232404FF42
:10053300E433FE7C007D051209508D23E52324035B
:10054300900326F00205EDE528B4011EE54A0454A4
:1005530003F54A9003267403F0E490031EF090031E
:1005630021E54AF0E49003238043E5286402707A8E
:10057300E523607664016072900326E0FB241EF598
:1005830082E43403F583E024018048E528B40124A0
:10059300E54A24035403F54A9003267403F0E490D8
:1005A300031EF0900321E54AF0E4900323F0A3F047
:1005B300A3F08036E52864027030E523602C6401E3
:1005C3006028900326E0FB241EF582E43403F583C0
:1005D300E02409FFE433FE7C007D0A120950741EF7
:0D05E3002BF582E43403F583EDF0020FE206
:101050007E01E4FD7C0174292EF8E6D3940240035E
:10106000430780ECC394085004EFC313FF0E0CBC7D
:0E10700009E474242DF8A607E4FF0DBD04D694
:01107E00224F
:100EF700E4FFFE12000EE4F570AF707E0074272544
:100F070070F582E43403F583E0FD1210FFAF707EC5
:100F1700001210D274272570F582E43403F583EFAD
:0A0F2700F00570E570C3940340CF9D
:010F3100229D
:100E7E00E4F570AF707E001210D274272570F582E3
:100E8E00E43403F583EFF074272570F582E4340320
:100E9E00F583E0B4FF0D74272570F582E43403F575
:0C0EAE0083E4F00570E570C3940340C7B6
:010EBA002215
:0C119F00300B081210501203D3C20B22B8
:0611DD00300902054C225E
:10101B00200B31300929E54CC3940F4009E54C9462
:10102B001C5003E4F54B7429254BF8A64CE4F54C06
:10103B00054BE54BB4210DC209D20BE4F54B22D283
:05104B0009E4F54C2250
:1010E900538E7F5389F0438901758AD7758CFDC268
:0610F9008DD288D2A8226E
:0C00670049031E00000000000000000023
:100FE200C2A07F801211C17F057E001211CCE4F5F0
:100FF20070741E2570F582E43403F583E0FF12114C
:10100200C17F057E001211CC0570E570C3940940C2
:08101200E07FFE1211C1D2A023
:01101A0022B3
:101115007F0990031EE4F0A3DFFC9003267408F01A
:0111250022A7
:10007300480310140A06050C37070643030D000056
:0A0083000046031800000000000012
:040EBB00E0FD7F8A4D
:100EBF00D2A45307FEE4FEEF30E004D2A58002C2B5
:100ECF00A5D2A6C2A6EFC313FF0EBE08EAE4FEED3D
:100EDF0030E004D2A58002C2A5D2A6C2A6EDC313EC
:070EEF00FD0EBE08EAC2A4DB
:010EF60022D9
:100F3200D2A4430701E4FDEF30E004D2A58002C24F
:100F4200A5D2A6C2A6EFC313FF0DBD08EAE4FDEECB
:100F5200C313FE30A505430680800353067FD2A645
:0A0F6200C2A60DBD08E9C2A4AF0647
:010F6C002262
:100BB000E4FF74102FF582E43403F583E0FE75F052
:100BC0000A84FDEE75F00A8474052FF582E434037F
:100BD000F583E5F0F0EDC454F0FE74052FF582E4E2
:100BE0003403F583E02EF00FBF08C7E4FD7F8E12BB
:100BF0000EBF7D807F80120EBF900306E0FD7F8CCC
:100C0000120EBFA3E0FD7F88120EBFA3E0FD7F861A
:100C1000120EBF90030C120EBB900309E0FD7F84FF
:100C2000120EBFA3E0FD7F82120EBFA3E0FD7F8006
:0E0C3000120EBFA3120EBB7D807F8E020EBF80
:100C3E007F84120F32900305EFF07F82120F32A3E2
:100C4E00EFF07F80120F32A3EFF0E4FF74052FF563
:100C5E0082E43403F583E0FEC4540FFDEE540FFE20
:100C6E00740D2FF582E43403F583EEF0ED75F00A82
:100C7E00A4FE740D2FF582E43403F583E02EF07498
:100C8E00052FF582E43403F583E0C4540FFEEF25FF
:100C9E00E02418F582E43403F583EEF074052FF5A5
:100CAE0082E43403F583E0540FFEEF25E02419F5BA
:0C0CBE0082E43403F583EEF00FBF0390D6
:010CCA002207
:0B11AB00C2A4C2A6E4FD7F80020EBFBC
:06107F008B708A7189727A
:10108500E4FFAB70AA71A9728F827583001208FF05
:10109500FE74102FF582E43403F583EEF00FBF08DC
:0410A500E1020BB0A9
:0D118500E4F5C7F5C5F5C675C380F5C422B5
:1010D20075C78375C5018FC48EC375C65A75C6A5FB
:0610E20000AFC2121185EF
:0110E80022E5
:1010FF0075C78375C5028FC48EC38DC275C65A75E9
:06110F00C6A500021185D7
:10000E0075C78375C5038FC48EC375C65A75C6A5CD
:04001E000002118546
:10008D00025F000060A1026400000000000000009B
:10009D000000000000000000000000000000000053
:1000AD000000000000000000000000000000000043
:1000BD000000000000000000000000000000000033
:1000CD000000000000000000000000000000000023
:1000DD000000000000000000000000000000000013
:1000ED000000000000000000000000000000000003
:1000FD0000000000000000000000000000000000F3
:10010D0000000000000000000000000000000000E2
:10011D0000000000000000000000000000000000D2
:10012D00000000000000000000C102C185C107C130
:10013D0006C10302550000024D0000025D000001E2
:10014D005900015300C100C101625C0008000000AC
:10015D000000000000000000000000000000000092
:10016D000000000000000000000000000000000082
:10017D000000000000000000000000000000000072
:10018D000000000000000000000000000000000062
:1003AD0000000000000000000048000000000000F8
:1003BD000000000001540002510000024F00000235
:0503CD00570000C1040F
:10114800D2B6C2AC8F993099FDC299D2ACC2B62240
:10112600E4F5AF8F9BE59A30E1FB539AFD75AF016D
:011136002296
:0A11B6007FA1900264E4F0A3DFFCC7
:0111C000220C
:030023000207E2EF
:1007E200C0E0C083C082C0D075D000C006C0072060
:1007F20098030208D4C298E5995482FFBF802BE582
:1008020099B4800C755A017555007556000208D9C5
:10081200E599B48106755A030208D9E599648260A4
:10082200030208D9755A050208D9E55AB40116908F
:100832000327E014B59908B2B4755A020208D975B3
:100842005A000208D9E55AB40312E599640160031B
:100852000208D9755A04F55FF560807BE55AB40445
:1008620028E59964FE600BC3E5609408E55F940097
:100872004004D20780610560E560AE5F7002055FEB
:10088200142400F58274008041E55AB4050FE599FD
:1008920064017043755A06F54FF550803AE55AB433
:1008A2000635E59964FE600DC3E55094A1E54F64F9
:1008B2008094804004D202801E0550E550AE4F70F5
:1008C20002054F142464F58274023EF583E599F023
:1008D2008005309902C299D007D006D0D0D082D0FC
:0408E20083D0E032AD
:030043000209B6F9
:1009B600C0E0C0F0C083C082C0D075D000C000C007
:1009C60001C002C003C004C005C006C007E59A30D6
:1009D600E070539AFEE55C455B7015E59BB4F00E3E
:1009E600755B00755C017551007552008054801F5F
:1009F600E55C6401455B704AE59BB4FE1A85535974
:100A0600E553045401F553FF1210A9D200D2037521
:100A16005B00755C00802B75F02EE553A42408F569
:100A260082E5F03400F5832553F5830552E552AE91
:100A36005170020551142582F582E5833EF583E562
:100A46009BF0E59A30E103539AFDD007D006D00516
:100A5600D004D003D002D001D000D0D0D082D08331
:050A6600D0F0D0E032E9
:03000B00020E37AB
:100E3700C0E0C0F0C083C082C0D075D008758AD723
:100E4700758CFD20041B0558E558AE5770020557F1
:100E570014C39458EE941B4008755700755800D278
:100E6700041211DD0556E55670020555D0D0D08223
:070E7700D083D0F0D0E0327F
:1010A90075F02EEFA42408F582E5F03400F5832FBE
:1010B900F583E4F075F02EEFA42409F582E5F03408
:0910C90000F5832FF583E4F02209
:100A6B0075F02EE559A42408F582E5F03400F583E2
:100A7B002559F583E075F003A4F570120C3EC2AC5A
:100A8B00D2B67599F03099FDC299E4FFFE740D2F23
:100A9B00F582E43403F583E0F5993099FDC2990FA3
:100AAB00BF00010EEF64034E70E320000AE4F599DA
:100ABB003099FDC299803FE4FEFFE5702402FDE40E
:100ACB0033FCC3EF9DEE9C502D75F02EE559A424FD
:100ADB0008F582E5F03400F5832559F583E5822F7F
:100AEB00F582E5833EF583E0F5993099FDC2990FC8
:100AFB00BF00010E80C47599FE3099FDC299C2B634
:020B0B00D2AC6A
:010B0D0022C5
:03000300020F6D7C
:100F6D00C0E0C0F0C083C082C0D075D000C000C04A
:100F7D0001C002C003C004C005C006C00712101B8B
:100F8D00D007D006D005D004D003D002D001D000B8
:0B0F9D00D0D0D082D083D0F0D0E03262
:100DDC00C2B6E4F55AF55BF55C1211D67598504322
:100DEC008E40538EFE53890F758BE0758DFEC2AB12
:100DFC00D28E759A50438E0475D7E075D6FE438E0D
:100E0C001075AF01538E7F5389F0438901758AD7D2
:100E1C00758CFDC28DD2A9D28CD288D2A8120E7E2E
:0B0E2C0075B71075B810D2ACD2AF2221
:1005F000E4F56EF56FC2B41211B6120DDC1211AB38
:10060000120BB0300407C2047FFE12112612119F94
:1006100030024CC2A27F801211C1E4F56CF56D90DE
:100620000264E075F002A4FFD3E56D9FE56C95F0E0
:1006300050217464256DF582E43402F583E0FF12E5
:1006400011C17F057E001211CC056DE56D70D005DE
:100650006C80CC7FFE1211C1D2A2E4F55AC20230E6
:1006600007447B017A00790012107F120C3E1211B0
:1006700015E4F56CF56DAF6D74182FF582E4340355
:10068000F583E0FE741E2FF582E43403F583EEF06B
:10069000056DE56D7002056C6406456C70D8120F2F
:1006A000E2E4F55AC207E55AB40206120A6BE4F511
:1006B0005A20030302060312111575F02EE559A402
:1006C0002409F582E5F03400F5832559F583E0FF30
:1006D00075F02EE559A42408F582E5F03400F58381
:1006E0002559F583E0FE90031EB5072D7401F075C2
:1006F000F02EE559A42409F582E5F03400F58325B0
:1007000059F583E0FD75F00A84900324F0ED75F04F
:100710000A84A3E5F0F00207DA7402F0EFFDEEC3FD
:100720009DFFE49400FE7C007D0312093EEF24FF50
:10073000F55EEE34FFF55D75F02EE559A42409F55C
:1007400082E5F03400F5832559F583E582255EF5D1
:1007500082E583355DF583E075F080A4FFAEF0752A
:10076000F02EE559A4240AF582E5F03400F583253E
:1007700059F583E582255EF582E583355DF583E0F5
:100780002FF54EEC3EF54DFEAF4E7C037DE8120991
:1007900050900322EFF0AE4DAF4E7C037DE812097E
:1007A000507E007F64CFCDCFCECCCE120950A3EFC8
:1007B000F0AE4DAF4E7C007D641209507E007F0A82
:1007C000CFCDCFCECCCE120950A3EFF0AE4DAF4E71
:1007D0007C007D0A120950A3EDF0120FE2C2030261
:0207E00006030E
:0A11CC00EF1F70011E144E70F72291
:10002600AD07AC06ED1DAE0470011C4E60097FE8FD
:080036007E031211CC80ED22C3
:0711D60075CED075CDC022DB
:0B11C1008FCFE5CD30E7FB75CDC022DD
:0D117700E4F5CFE5CD30E7FBAFCF75CDC07F
:011184002248
:0C1192008FCFE5CD30E7FBAFCF75CDC0AF
:01119E00222E
:100FA800C2927FAB121192E4FF121192E4FF121168
:100FB80092E4FF121192E4FF1211928F1BE4FF12C8
:100FC8001192E4FF121192D292E51BB49D06BF7FE5
:090FD80003D38001C3920CA20CAA
:010FE10022ED
:10113700C2927F05121192E4FF121192D292EF131D
:011147002285
:0F11680012113740FBC2927F06121192D29222CF
:10115800300C0C121168C2927FC7121192D29222DF
:100D57008F138E128D118C10300C7912113740FBC6
:100D6700C2927F0B121192AF11121192AF12121190
:100D770092AF13121192E4FF121192AF17AE16AD94
:100D870015AC14EC4D4E4F6049E4FF121192AB18AD
:100D9700AA19A91AEF12092CE5132401F513E43552
:100DA70012F512E43511F511E43510F5107401252B
:100DB7001AF51AE43519F519E51724FFF517E5169D
:100DC70034FFF516E51534FFF515E51434FFF51472
:050DD70080A9D2922268
:100B0E008F648E638D628C61200C03020BAFAF6815
:100B1E00AE67AD66AC65EC4D4E4F7003020BAF1277
:100B2E001168C2927F02121192AF62121192AF63DC
:100B3E00121192AF64121192AF68AE67AD66AC65DA
:100B4E00EC4D4E4F6056AB69AA6AA96B1208E6FFD0
:100B5E00121192E5642401F564E43563F563E4351E
:100B6E0062F562E43561F5617401256BF56BE43570
:100B7E006AF56AE56824FFF568E56734FFF567E511
:100B8E006634FFF566E56534FFF565E564FFE4FE62
:100B9E00FDFCFBFAF9F8C31209A5709CD292020B68
:020BAE001C2207
:03000000020CCB24
:0C0CCB00787FE4F6D8FD758172020D12EE
:1008E600BB010689828A83E0225002E722BBFE0210
:0908F600E32289828A83E4932243
:1008FF00BB010CE58229F582E5833AF583E02250AE
:10090F0006E92582F8E622BBFE06E92582F8E222F7
:0D091F00E58229F582E5833AF583E4932211
:10092C00BB010689828A83F0225002F722BBFE01AA
:02093C00F322A4
:10093E00EF8DF0A4A8F0CF8CF0A428CE8DF0A42ECD
:02094E00FE2287
:10095000BC000BBE0029EF8DF084FFADF022E4CC8B
:10096000F875F008EF2FFFEE33FEEC33FCEE9DEC54
:10097000984005FCEE9DFE0FD5F0E9E4CEFD22ED9A
:10098000F8F5F0EE8420D21CFEADF075F008EF2FE4
:10099000FFED33FD4007985006D5F0F222C398FDD5
:0509A0000FD5F0EA2272
:1009A500EB9FF5F0EA9E42F0E99D42F0E89C45F0A8
:0109B500221F
:100CD7000205F0E493A3F8E493A34003F68001F23E
:100CE70008DFF48029E493A3F85407240CC8C3331E
:100CF700C4540F4420C8834004F456800146F6DFED
:100D0700E4800B0102040810204080900046E47E36
:100D1700019360BCA3FF543F30E509541FFEE493E1
:100D2700A360010ECF54C025E060A840B8E493A3A8
:100D3700FAE493A3F8E493A3C8C582C8CAC583CAD3
:100D4700F0A3C8C582C8CAC583CADFE9DEE780BE8B
:0103D200002A
:00000001FF
