:1002B600C100C102C104012E000524010203040588
:1002C6000534090909090905290000000000023161
:1002D6000000012F00012100C101C103C105022256
:1002E6000001013000013300590000000000000049
:1002F60000000000000000000000000000000000F8
:0403060000000000F3
:1003EA00AD07AC06E4F529F52AF52BED7807CEC35F
:0F03FA0013CE13D8F9543FF52CED547FF52D2277
:10003400E4F529F52AF52B12018BF52C9000011219
:0500440001A4F52D22CE
:0604B400120492D2AF22F7
:03004B000201F3BC
:1001F300C0E0C083C082C0D075D00875CDC0AFCF7A
:10020300EF24026009247E7030753300803BB2A670
:10021300B2A5900000E0FFB40109A3E0B47F04D2CB
:1002230003800EC203EFD394004004D2018002C2C4
:1002330001753300753000801074002533F582E4B6
:100243003400F583E5CFF0053375CF00D0D0D082ED
:05025300D083D0E03271
:10004E001204B4C2A6C2A5300305753102800B306E
:10005E0001057531018003E4F53175150075160043
:10006E007517317518027B007A0079347D051202FE
:10007E00587F027E0012043C3001CCE4F510E510EE
:10008E00C3940350C2752101900000E075F002A4E4
:10009E00FFC3E5219FE5F06480F8748098504E759B
:1000AE0015007516007517317518027B007A0079E8
:1000BE00347D051202587F027E0012043C74002526
:1000CE0021F9E43400FA7B011200341B8B157516EE
:1000DE00007517317518027A0079297D05120258BC
:1000EE007F027E0012043C05210521809B051080B5
:0100FE008D74
:08030A0002480505024600004F
:10042300E4FEEF3392A1EF25E0FFD2A2A2A0E433D2
:080433004207C2A20EBE08EA56
:01043B00229E
:09040900E4FD7F211204127F249E
:10041200C2A3120423AC07AF05120423D2A3AF0474
:0104220022B7
:0C048500C2A3120423E4FF120423D2A33C
:010491002248
:060003008B428A43894490
:10000900C2A3120423AD07E4FCECC395455017E4E1
:10001900FF120423AB42AA43A9448C82758300EFE3
:0A0029001201D10C80E3D2A3AF0551
:0100330022AA
:060365008B1A8A1B891CA3
:10036B00C2A3120423AD07E4FCECC3951D5015ABDF
:10037B001AAA1BA91C8C827583001201A4FF1204FC
:08038B00230C80E5D2A3AF05AD
:010393002247
:10045400C2A47D0D7F20120412D2A47F147E000258
:0204640004AAE8
:10046600C2A37FE11204237F0A7E001204AAD2A34C
:010476002263
:100313008B4B8A4C894D8D4EC2A4D2A3C2A27F14AB
:100323007E001204AA1204090D7F251204127D0710
:100333007F26120412C2A4AB4BAA4CA94D854E1DB5
:100343007F2A1203657D027F311204121D7F221260
:1003530004127D3F7F20120412D2A47FC87E0002C4
:0203630004AAEA
:100258008B118A1289138D14C2A4D2A3C2A27F144F
:100268007E001204AA1204097F251204127D077F5A
:1002780026120412C2A4AB11AA12A91385141D7F59
:1002880030120365AB15AA16A91785181D7FA01291
:1002980003657D7E7F20120412D2A47F587E02124D
:0E02A80004AA7FE11204237DFF7F27020412C7
:1003C200120454C2A4D2A3C2A27F147E001204AAB1
:1003D2001204097D057F251204127D077F2612046F
:0803E200127D7E7F200204124F
:10039400C2A48D1D7F30120365AB3DAA3EA93F85E3
:1003A400401D7FA0120365D2A47FF47E011204AA2B
:0E03B400E4FD7FE11204127DFF7F2702041298
:0A04AA00EF1F70011E144E70F722C0
:10043C00AD07AC06ED1DAE0470011C4E60097FE8E3
:08044C007E031204AA80ED22D8
:0D049200E4F5CF75CDC075CE4043AF02221A
:0B049F008FCFE5CD30E7FB75CDC0220C
:0D047700E4F5CFE5CD30E7FBAFCF75CDC08C
:010484002255
:030000000200FFFC
:0C00FF00787FE4F6D8FD75814E020146C2
:10018B00BB010689828A83E0225002E722BBFE0272
:09019B00E32289828A83E49322A5
:1001A400BB010CE58229F582E5833AF583E0225010
:1001B40006E92582F8E622BBFE06E92582F8E2225A
:0D01C400E58229F582E5833AF583E4932274
:1001D100F8BB010DE58229F582E5833AF583E8F064
:1001E100225006E92582C8F622BBFE05E92582C810
:0201F100F222F8
:10010B0002004EE493A3F8E493A34003F68001F2BC
:10011B0008DFF48029E493A3F85407240CC8C333F5
:10012B00C4540F4420C8834004F456800146F6DFC4
:10013B00E4800B01020408102040809002B6E47E9C
:10014B00019360BCA3FF543F30E509541FFEE493B9
:10015B00A360010ECF54C025E060A840B8E493A380
:10016B00FAE493A3F8E493A3C8C582C8CAC583CAAB
:10017B00F0A3C8C582C8CAC583CADFE9DEE780BE63
:0103120000EA
:00000001FF
