:10004E00C100C102C103012E0005240102030405F3
:10005E0005340909090909052900000000000231CB
:10006E000000012F00012100C101C1040222000184
:10007E0001300001330060A100000000000000000C
:10008E000000000000000000000000000000000062
:10009E000000000000000000000000000000000052
:1000AE000000000000000000000000000000000042
:1000BE000000000000000000000000000000000032
:1000CE000000000000000000000000000000000022
:1000DE000000000000000000000000000000000012
:1000EE000000000000000000000000000000000002
:1000FE0000000000000000000000000000000000F2
:10010E0000000000000000000000000000000000E1
:0B011E000000000000000000000000D6
:1004B400AD07AC06E4F529F52AF52BED7807CEC394
:0F04C40013CE13D8F9543FF52CED547FF52D22AC
:10003400E4F529F52AF52B120132F52C9000011272
:05004400014BF52D2227
:06057E0012055CD2AF2261
:03004B0002038A23
:10038A00C0E0C083C082C0D075D00875CDC0AFCFE1
:10039A00EF24026009247E701E7533008029B2A6FC
:1003AA00900000E0D394004004D2018002C201759B
:1003BA003300753000801074002533F582E4340070
:1003CA00F583E5CFF0053375CF00D0D0D082D08346
:0303DA00D0E0323E
:1001EF0012057EC2A5C2A6E52F2401FFE433FE7CD3
:1001FF00007D0312019A8D2F200105E4F531800354
:10020F007531017514007515007516317517027B60
:10021F00007A0079347D0512032C7F027E001205CF
:10022F00063001C3752101900000E075F002A4FFB4
:10023F00C3E5219FE5F06480F8748098504E7514E3
:10024F00007515007516317517027B007A00793429
:10025F007D0512032C7F027E0012050674002521F6
:10026F00F9E43400FA7B011200341B8B147515006E
:10027F007516317517027A0079297D0512032C7FC7
:10028F00027E0012050605210521809BB2A5020101
:01029F00F668
:08012900024805050246000032
:1004ED00E4FEEF3392A1EF25E0FFD2A2A2A0E43308
:0804FD004207C2A20EBE08EA8C
:0105050022D3
:0904D300E4FD7F211204DC7F240A
:1004DC00C2A31204EDAC07AF051204EDD2A3AF0416
:0104EC0022ED
:0C054F00C2A31204EDE4FF1204EDD2A3DD
:01055B00227D
:060003008B428A43894490
:10000900C2A31204EDAD07E4FCECC395455017E417
:10001900FF1204EDAB42AA43A9448C82758300EF19
:0A0029001201780C80E3D2A3AF05AA
:0100330022AA
:06042F008B198A1A891BDB
:10043500C2A31204EDAD07E4FCECC3951C5015AB4B
:1004450019AA1AA91B8C8275830012014BFF12048D
:08045500ED0C80E5D2A3AF0518
:01045D00227C
:10051E00C2A47D0D7F201204DCD2A47F147E0002C3
:02052E00057452
:10053000C2A37FE11204ED7F0A7E00120574D2A3EC
:010540002298
:1003DD008B4B8A4C894D8D4EC2A4D2A3C2A27F14E1
:1003ED007E001205741204D30D7F251204DC7D07E7
:1003FD007F261204DCC2A4AB4BAA4CA94D854E1C22
:10040D007F2A12042F7D027F311204DC1D7F221200
:10041D0004DC7D3F7F201204DCD2A47FC87E000265
:02042D00057454
:10032C008B108A1189128D13C2A4D2A3C2A27F147E
:10033C007E001205741204D37F251204DC7D077F26
:10034C00261204DCC2A4AB10AA11A91285131C7FBF
:10035C003012042FAB14AA15A91685171C7FA012F6
:10036C00042F7D7E7F201204DCD2A47F587E0212E3
:0E037C0005747FE11204ED7DFF7F270204DC93
:10048C0012051EC2A4D2A3C2A27F147E0012057450
:10049C001204D37D057F251204DC7D077F26120410
:0804AC00DC7D7E7F200204DCF0
:10045E00C2A48D1C7F3012042FAB3DAA3EA93F854E
:10046E00401C7FA012042FD2A47FF47E01120574CB
:0E047E00E4FD7FE11204DC7DFF7F270204DC39
:0A057400EF1F70011E144E70F722F5
:10050600AD07AC06ED1DAE0470011C4E60097FE818
:080516007E0312057480ED2242
:0D055C00E4F5CF75CDC075CE4043AF02224F
:0B0569008FCFE5CD30E7FB75CDC02241
:0D054100E4F5CFE5CD30E7FBAFCF75CDC0C1
:01054E00228A
:030000000202A059
:0C02A000787FE4F6D8FD75814E0202E77D
:10013200BB010689828A83E0225002E722BBFE02CB
:09014200E32289828A83E49322FE
:10014B00BB010CE58229F582E5833AF583E0225069
:10015B0006E92582F8E622BBFE06E92582F8E222B3
:0D016B00E58229F582E5833AF583E49322CD
:10017800F8BB010DE58229F582E5833AF583E8F0BD
:10018800225006E92582C8F622BBFE05E92582C869
:02019800F22251
:10019A00BC000BBE0029EF8DF084FFADF022E4CC49
:1001AA00F875F008EF2FFFEE33FEEC33FCEE9DEC12
:1001BA00984005FCEE9DFE0FD5F0E9E4CEFD22ED58
:1001CA00F8F5F0EE8420D21CFEADF075F008EF2FA2
:1001DA00FFED33FD4007985006D5F0F222C398FD93
:0501EA000FD5F0EA2230
:1002AC000201EFE493A3F8E493A34003F68001F278
:1002BC0008DFF48029E493A3F85407240CC8C33353
:1002CC00C4540F4420C8834004F456800146F6DF22
:1002DC00E4800B010204081020408090004EE47E64
:1002EC00019360BCA3FF543F30E509541FFEE49317
:1002FC00A360010ECF54C025E060A840B8E493A3DE
:10030C00FAE493A3F8E493A3C8C582C8CAC583CA08
:10031C00F0A3C8C582C8CAC583CADFE9DEE780BEC0
:0101310000CD
:00000001FF
