:1002B700C100C102C104012E000524010203040587
:1002C7000534090909090905290000000000023160
:1002D7000000012F00012100C101C103C105022255
:1002E7000001013000013300590000000000000048
:1002F70000000000000000000000000000000000F7
:0403070000000000F2
:1003EB00AD07AC06E4F529F52AF52BED7807CEC35E
:0F03FB0013CE13D8F9543FF52CED547FF52D2276
:10003400E4F529F52AF52B12018EF52C9000011216
:0500440001A7F52D22CB
:0604B500120493D2AF22F5
:03004B000201F6B9
:1001F600C0E0C083C082C0D075D00875CDC0AFCF77
:10020600EF24026009247E702E7533008039B2A671
:10021600900000E0FFB40109A3E0B47F04D203809C
:100226000EC203EFD394004004D2018002C20175CE
:100236003300753000801074002533F582E43400F5
:10024600F583E5CFF0053375CF00D0D0D082D083CB
:03025600D0E032C3
:10004E001204B5C2A5C2A6300305753102800B306D
:10005E0001057531018003E4F53175150075160043
:10006E007517317518027B007A0079347D051202FE
:10007E00597F027E0012043D3001CCE4F51075214B
:10008E0001900000E075F002A4FFC3E5219FE5F0AA
:10009E006480F8748098504E7515007516007517AB
:1000AE00317518027B007A0079347D051202597F72
:1000BE00027E0012043D74002521F9E43400FA7B1F
:1000CE00011200341B8B1575160075173175180249
:1000DE007A0079297D051202597F027E0012043DB5
:1000EE0005210521809B0510E510C39403408FB2B6
:0400FE00A502005502
:08030B0002480505024600004E
:10042400E4FEEF3392A1EF25E0FFD2A2A2A0E433D1
:080434004207C2A20EBE08EA55
:01043C00229D
:09040A00E4FD7F211204137F249C
:10041300C2A3120424AC07AF05120424D2A3AF0471
:0104230022B6
:0C048600C2A3120424E4FF120424D2A339
:010492002247
:060003008B428A43894490
:10000900C2A3120424AD07E4FCECC395455017E4E0
:10001900FF120424AB42AA43A9448C82758300EFE2
:0A0029001201D40C80E3D2A3AF054E
:0100330022AA
:060366008B1A8A1B891CA2
:10036C00C2A3120424AD07E4FCECC3951D5015ABDD
:10037C001AAA1BA91C8C827583001201A7FF1204F8
:08038C00240C80E5D2A3AF05AB
:010394002246
:10045500C2A47D0D7F20120413D2A47F147E000256
:0204650004ABE6
:10046700C2A37FE11204247F0A7E001204ABD2A349
:010477002262
:100314008B4B8A4C894D8D4EC2A4D2A3C2A27F14AA
:100324007E001204AB12040A0D7F251204137D070C
:100334007F26120413C2A4AB4BAA4CA94D854E1DB3
:100344007F2A1203667D027F311204131D7F22125D
:1003540004137D3F7F20120413D2A47FC87E0002C1
:0203640004ABE8
:100259008B118A1289138D14C2A4D2A3C2A27F144E
:100269007E001204AB12040A7F251204137D077F56
:1002790026120413C2A4AB11AA12A91385141D7F57
:1002890030120366AB15AA16A91785181D7FA0128F
:1002990003667D7E7F20120413D2A47F587E02124A
:0E02A90004AB7FE11204247DFF7F27020413C3
:1003C300120455C2A4D2A3C2A27F147E001204ABAE
:1003D30012040A7D057F251204137D077F2612046C
:0803E300137D7E7F200204134C
:10039500C2A48D1D7F30120366AB3DAA3EA93F85E1
:1003A500401D7FA0120366D2A47FF47E011204AB28
:0E03B500E4FD7FE11204137DFF7F2702041395
:0A04AB00EF1F70011E144E70F722BF
:10043D00AD07AC06ED1DAE0470011C4E60097FE8E2
:08044D007E031204AB80ED22D6
:0D049300E4F5CF75CDC075CE4043AF022219
:0B04A0008FCFE5CD30E7FB75CDC0220B
:0D047800E4F5CFE5CD30E7FBAFCF75CDC08B
:010485002254
:03000000020102F8
:0C010200787FE4F6D8FD75814E020149BB
:10018E00BB010689828A83E0225002E722BBFE026F
:09019E00E32289828A83E49322A2
:1001A700BB010CE58229F582E5833AF583E022500D
:1001B70006E92582F8E622BBFE06E92582F8E22257
:0D01C700E58229F582E5833AF583E4932271
:1001D400F8BB010DE58229F582E5833AF583E8F061
:1001E400225006E92582C8F622BBFE05E92582C80D
:0201F400F222F5
:10010E0002004EE493A3F8E493A34003F68001F2B9
:10011E0008DFF48029E493A3F85407240CC8C333F2
:10012E00C4540F4420C8834004F456800146F6DFC1
:10013E00E4800B01020408102040809002B7E47E98
:10014E00019360BCA3FF543F30E509541FFEE493B6
:10015E00A360010ECF54C025E060A840B8E493A37D
:10016E00FAE493A3F8E493A3C8C582C8CAC583CAA8
:10017E00F0A3C8C582C8CAC583CADFE9DEE780BE60
:0103130000E9
:00000001FF
