:10004600052501020304050322000000022E00001C
:10005600033100000063E80000000000000000001B
:10006600000000000000000000000000000000008A
:10007600000000000000000000000000000000007A
:10008600000000000000000000000000000000006A
:10009600000000000000000000000000000000005A
:1004460000013900012100013C0001300060F00488
:100456002400000000000000000000000000000072
:100466000000000000000000000000000000000086
:100476000000000000000000000000000000000076
:100486000000000000000000000000000000000066
:100496000000000000000000000000000000000056
:1004A6000000000000000000000000000000000046
:1004B6000000000000000000000000000000000036
:1004C6000000000000000000000000000000000026
:1004D6000000000000000000000000000000000016
:1004E6000000000000000000000000000000000006
:1004F60000000000000000000000000000000000F6
:1005060000000000000000000000000000000000E5
:1005160000000000000000000000000000000000D5
:1005260000000000000000000000000000000000C5
:1005360000000000000000000000000000000000B5
:1005460000603C03E800000000000000000000001E
:100556000000000000000000000000000000000095
:100566000000000000000000000000000000000085
:100576000000000000000000000000000000000075
:0D05860000C100C101023400000237000076
:030043000209D9D6
:1009D900C0E0C0D0E59A30E00EB2A5B2A6539AFEA7
:1009E900E59BB4FE02D200E59A30E103539AFDD0AB
:0409F900D0D0E03248
:1009FD00759A50438E0475D7E075D6FE438E1075EB
:100A0D00AF01D2AF7E037FE87D007B017A007900D4
:030A1D0002078944
:1007B500E4F5AF759BFDE59A30E1FB539AFDE52124
:1007C500253CFFE433FE7C007D031207348F9BE557
:1007D5009A30E1FB539AFDE52175F00384F59BE51D
:1007E5009A30E1FB539AFDE4FFFEC3EF9521EE94A9
:1007F50000501C74242FF582E43404F583E0F59B46
:10080500E59A30E1FB539AFD0FBF00010E80DBE452
:10081500FEFFC3EF953CEE9400501C74E82FF58263
:10082500E43403F583E0F59BE59A30E1FB539AFD4B
:100835000FBF00010E80DB759BFEE59A30E1FB538F
:100845009AFD75AF017E037FE87D007B017A007913
:0908550000120789E4F521F53CCD
:01085E002277
:0A0A8A00E4900424F09003E8F02249
:10059D00C2A5C2A6120A8A1209FD7B007A0079252E
:1005AD007D0512093D75C13F7F07120A658F1EE556
:1005BD001E20E6030206B8B2A5B2A67B007A00792A
:1005CD0022750C037F611200037FE2120A207DFF6A
:1005DD007F271209C8E5242523FFE433FEEF7807B2
:1005ED00C333CE33CED8F9F52F8E2E7803CEC31369
:1005FD00CE13D8F9F52D8E2C752A00E52F5407F55D
:10060D002BFF7400252DF5827400352CF583E0FE4B
:10061D00A807088002C313D8FC5401F530704F743D
:10062D0000252DF5827400352CF5837401A807087B
:10063D008002C313D8FC4EF0E521C394F0502F7403
:10064D00242521F582E43404F583E4F07425252175
:10065D00F582E43404F583E523F074262521F58233
:10066D00E43404F583E524F074032521F521E52216
:10067D006058E53CC3943C505174E8253CF582E448
:10068D003403F583E522F074E9253CF582E4340367
:10069D00F583E523F074EA253CF582E43403F58314
:1006AD00E524F07403253CF53C801F7B007A00792E
:1006BD0019750C01E4FF120003E519643F600B7B13
:1006CD00007A0079257D0512093D3000051207B528
:0806DD00C20075C13F0205B522
:09059300021C050503190000001B
:100A2000E4FEEF3392A1EF25E0FFD2A2A2A0E433CF
:080A30004207C2A20EBE08EA53
:010A3800229B
:1009B200E4FD7F211209C87F241209C80D7F251288
:0609C20009C87D077F2635
:1009C800C2A3120A20AC07AF05120A20D2A3AF04B3
:0109D80022FC
:0C0A6500C2A3120A20E4FF120A20D2A350
:010A71002262
:060003008B098A0A890B3B
:10000900C2A3120A20AD07E4FCECC3950C5017E417
:10001900FF120A20AB09AA0AA90B8C82758300EF8B
:0A0029001207120C80E3D2A3AF050A
:0100330022AA
:060983008B0D8A0E890FA6
:10098900C2A3120A20AD07E4FCECC395105015ABC5
:100999000DAA0EA90F8C827583001206E5FF120AB3
:0809A900200C80E5D2A3AF058C
:0109B1002223
:10093D008B088A09890A8D0BC2A4D2A3C2A27F1487
:10094D007E00120A5B1209B2C2A4AB08AA09A90A59
:10095D00850B107F2A1209837D037F311209C87D13
:10096D00017F221209C87D3F7F201209C8D2A47FC2
:06097D00C87E00020A5BC7
:1008EB008B118A1289138D14C2A4D2A3C2A27F14B6
:1008FB007E00120A5B1209B2C2A4AB11AA12A91391
:10090B008514107F30120983AB15AA16A917851809
:10091B00107FA01209837D7E7F201209C8D2A47F8D
:10092B00C87E00120A5B7FE1120A207DFF7F27023F
:02093B0009C8E9
:0B0A50007FF57E00120A5B7FF57E0040
:0A0A5B00EF1F70011E144E70F72209
:100A3900AD07AC06ED1DAE0470011C4E6008120A2C
:070A490050120A5080EE225A
:0D0A7200E4F5CF75CDC075CE4043AF022234
:0B0A7F008FCFE5CD30E7FB75CDC02226
:0D003400E4F5CFE5CD30E7FBAFCF75CDC0D3
:01004100229C
:0300000002085F94
:0C085F00787FE4F6D8FD75813C0208A605
:1006E500BB010CE58229F582E5833AF583E02250CA
:1006F50006E92582F8E622BBFE06E92582F8E22214
:0D070500E58229F582E5833AF583E493222D
:10071200F8BB010DE58229F582E5833AF583E8F01D
:10072200225006E92582C8F622BBFE05E92582C8C9
:02073200F222B1
:10073400BC000BBE0029EF8DF084FFADF022E4CCA9
:10074400F875F008EF2FFFEE33FEEC33FCEE9DEC72
:10075400984005FCEE9DFE0FD5F0E9E4CEFD22EDB8
:10076400F8F5F0EE8420D21CFEADF075F008EF2F02
:10077400FFED33FD4007985006D5F0F222C398FDF3
:050784000FD5F0EA2290
:10078900EF4E6012EF60010EEDBB010B89828A8387
:10079900F0A3DFFCDEFA2289F05007F709DFFCA994
:0C07A900F022BBFEFCF309DFFCA9F022EB
:10086B0002059DE493A3F8E493A34003F68001F201
:10087B0008DFF48029E493A3F85407240CC8C3338E
:10088B00C4540F4420C8834004F456800146F6DF5D
:10089B00E4800B0102040810204080900046E47EA7
:1008AB00019360BCA3FF543F30E509541FFEE49352
:1008BB00A360010ECF54C025E060A840B8E493A319
:1008CB00FAE493A3F8E493A3C8C582C8CAC583CA44
:1008DB00F0A3C8C582C8CAC583CADFE9DEE780BEFC
:01059C00005E
:00000001FF
