:0E024600011200011400021000000215000059
:10023600C2C7C2AC8F993099FDC299D2ACD2C7223F
:10022500E4F5AF8F9BE59A30E1FB539AFD75AF017D
:0102350022A6
:0300230002019E39
:10019E00C0E0C083C082C0D075D008309834C298F9
:1001AE00E5147033E599B4FD08C2C07515007516D7
:1001BE00000516E516AE15700205151424A0F5827D
:1001CE00740F3EF583E599F0E599B4FE0A751401B6
:1001DE008005309902C299D0D0D082D083D0E0323F
:0300430002014671
:0B014600C0E0C083C082C0D075D008AC
:10015100E59A30E037539AFEE5127038E59BB4FD1D
:100161000AC2C375100075110080290511E511AE91
:100171001070020510142400F58274003EF583E529
:100181009BF0E59BB4FE0D7512018008E59A30E104
:0401910003539AFD7D
:09019500D0D0D082D083D0E0323A
:1001EE00C294E4F5B375B480D2C7759850438E406F
:1001FE00538EFE53890F758BE0758DFEC2ABD28E7A
:10020E00D2AC759A50438E0475D7E075D6FE438EE8
:07021E001075AF01D2AF2201
:1000D200438E021201EEC2CDD2B7E5126401702E38
:1000E200D2C3C2C1FCFDC3ED9511EC95105016743C
:1000F200002DF58274003CF583E0FF1202360DBD3F
:1001020000010C80E1D2C1E4F510F511F512E514FD
:10011200B401C7D2C0C295E4FCFDC3ED9516EC95BF
:1001220015501674A02DF582740F3CF583E0FF1272
:1001320002250DBD00010C80E1D295E4F515F516FE
:04014200F51480969A
:0B0026007FF57E001200317FF57E00A8
:0A003100EF1F70011E144E70F7223D
:10000300AD07AC06ED1DAE0470011C4E6008120076
:070013002612002680EE22F8
:03000000020046B5
:0C004600787FE4F6D8FD75811B02008D68
:100052000200D2E493A3F8E493A34003F68001F2F2
:1000620008DFF48029E493A3F85407240CC8C333AF
:10007200C4540F4420C8834004F456800146F6DF7E
:10008200E4800B0102040810204080900246E47EC6
:10009200019360BCA3FF543F30E509541FFEE49373
:1000A200A360010ECF54C025E060A840B8E493A33A
:1000B200FAE493A3F8E493A3C8C582C8CAC583CA65
:1000C200F0A3C8C582C8CAC583CADFE9DEE780BE1D
:0102540000A9
:00000001FF
