:0400060000010203F0
:10004600014C00C108C109C107C106014B000128C6
:100056000044032500000000014A0001230001229C
:010066000099
:1005FF00E52624F970030207AD24F2700302076B9E
:10060F0024D5700302073824FC70030207471460D7
:10061F000302080AE528701AD208752801900324EE
:10062F0004F0E490031CF0A3E54AF0E4A3F0A30266
:10063F0007CDE52864017058752802E54A90000639
:10064F0093F522E4F523E52304900324F090031C93
:10065F007401F0A3E54AF02425F582E43403F58311
:10066F00E0FF75F0648490031FF0EF75F00A847556
:10067F00F00A84A3E5F0F07425254AF582E43403EB
:10068F00F583E075F00A84900321E5F0F002080A83
:10069F00E5286402600302080AE54AB4030BC208A6
:1006AF00E4F52812127E02080A900324E064016028
:1006BF002B900320E075F00AA4FF90031FE075F064
:1006CF0064A42FFF900321E02FFF7425254AF582A4
:1006DF00E43403F583EFF012105D80387425254A5A
:1006EF00F582E43403F583E0FF75F0648490031F13
:1006FF00F0EF75F00A8475F00A84A3E5F0F0742525
:10070F00254AF582E43403F583E075F00A849003FB
:10071F0021E5F0F07528019003247401F0E49003B3
:10072F001CF0A3E54AF002080AE528640260030200
:10073F00080AE5232401800DE528640260030208FE
:10074F000AE5232404FFE433FE7C007D05120AEA48
:10075F008D23E52304900324F002080AE528B40151
:10076F001CE54A045403F54A9003247401F0E49005
:10077F00031CF0A3E54AF0E490031F8041E52864D1
:10078F00027078E523607464016070900324E0FBCD
:10079F00241CF582E43403F583E024018046E52828
:1007AF00B40122E54A24035403F54A90032474014B
:1007BF00F0E490031CF0A3E54AF0E490031FF0A3CC
:1007CF00F0A3F08036E52864027030E523602C64D6
:1007DF00016028900324E0FB241CF582E43403F528
:1007EF0083E02409FFE433FE7C007D0A120AEA74D9
:0E07FF001C2BF582E43403F583EDF002114863
:1011B6007E01E4FD7C0174292EF8E6D394024003F7
:1011C600430780ECC394085004EFC313FF0E0CBC16
:0E11D60009E474242DF8A607E4FF0DBD04D62D
:0111E40022E8
:10105D00E4FFFE12000EE4F569AF697E00742525EC
:10106D0069F582E43403F583E0FD121268AF697E01
:10107D000012123B74252569F582E43403F583EFE4
:0A108D00F00569E569C3940340CF44
:011097002236
:100FE400E4F569AF697E0012123B74252569F58228
:100FF400E43403F583EFF074252569F582E43403C2
:10100400F583E0B4FF0D74252569F582E43403F516
:0C10140083E4F00569E569C3940340C75C
:0110200022AD
:0C1308003009081211B61205FFC20922BC
:06135600300702054C22E5
:10118100200931300729E54CC3940F4009E54C94FF
:101191001C5003E4F54B7429254BF8A64CE4F54C9F
:1011A100054BE54BB4210DC207D209E4F54B22D220
:0511B10007E4F54C22EB
:10125200538E7F5389F0438901758AD7758CFDC2FD
:061262008DD288D2A82203
:0C00670049031C00000000000000000025
:10114800C2A07F8012131F7F057E00121335E4F5BD
:1011580069741C2569F582E43403F583E0FF1213F2
:101168001F7F057E001213350569E569C3940940A0
:08117800E07FFE12131FD2A05C
:01118000224C
:10127E007F0990031CE4F0A3DFFC9003247408F0B4
:01128E00223D
:01000A0022D3
:0D12EE00E4F5C7F5C5F5C675C380F5C4224B
:10123B0075C78375C5018FC48EC375C65A75C6A590
:06124B0000AFC21212EE1A
:01125100227A
:1012680075C78375C5028FC48EC38DC275C65A757E
:06127800C6A5000212EE03
:10000E0075C78375C5038FC48EC375C65A75C6A5CD
:04001E00000212EEDC
:100073000262000060A101340000000000000000E3
:10008300000000000000000000000000000000006D
:10009300000000000000000000000000000000005D
:1000A300000000000000000000000000000000004D
:1000B300000000000000000000000000000000003D
:1000C300000000000000000000000000000000002D
:1000D300000000000000000000000000000000001D
:1000E300000000000000000000000000000000000D
:1000F30000000000000000000000000000000000FD
:1001030000000000000000000000000000000000EC
:10011300000000000000000000C100C182C105C151
:1001230004C101C103025B0000024F000002600032
:1001330000612E01D5000000000000000000000057
:1001430000000000000000000000000000000000AC
:10015300000000000000000000000000000000009C
:10016300000000000000000000000000000000008C
:10017300000000000000000000000000000000007C
:10018300000000000000000000000000000000006C
:10019300000000000000000000000000000000005C
:1001A300000000000000000000000000000000004C
:1001B300000000000000000000000000000000003C
:1001C300000000000000000000000000000000002C
:1001D300000000000000000000000000000000001C
:1001E300000000000000000000000000000000000C
:1001F30000000000000000000000000000000000FC
:1002030000000000000000000000000000000000EB
:1002130000000000000000000000000000000000DB
:1002230000000000000000000000000000000000CB
:1002330000000000000000000000000000000000BB
:1002430000000000000000000000000000000000AB
:10025300000000000000000000000000000000009B
:1002630000000048000000000000000000000156EC
:10027300000253000002510000024D00000155002E
:10028300612C0008000000000000000000000000D6
:10029300000000000000000000000000000000005B
:1002A300000000000000000000000000000000004B
:1002B300000000000000000000000000000000003B
:1002C300000000000000000000000000000000002B
:1002D300000000000000000000000000000000001B
:1002E300000000000000000000000000000000000B
:1002F30000000000000000000000000000000000FB
:1003030000000000000000000000000000000000EA
:1003130000000000000000000000000000000000DA
:1003230000000000000000000000000000000000CA
:1003330000000000000000000000000000000000BA
:1003430000000000000000000000000000000000AA
:10035300000000000000000000000000000000009A
:10036300000000000000000000000000000000008A
:10037300000000000000000000000000000000007A
:10038300000000000000000000000000000000006A
:10039300000000000000000000000000000000005A
:1003A300000000000000000000000000000000004A
:1012B100D2B6C2AC8F993099FDC299D2ACC2B622D6
:08133F008F993099FDC299223B
:10128F00E4F5AF8F9BE59A30E1FB539AFD75AF0103
:01129F00222C
:0A1314007FA1900134E4F0A3DFFC98
:01131E0022AC
:0300230002095C73
:10095C00C0E0C083C082C0D075D000C006C00720E4
:10096C009803020A6EC298E599548264807036E549
:10097C0099B4800C755D01755B00755C00020A739F
:10098C00E599B48106755D03020A73E599B4840692
:10099C00755D05020A73E59964856003020A737537
:1009AC005D08020A73E55DB4011B900325E014B5E4
:1009BC00990DB2B4755D027FFE12128F020A737527
:1009CC005D00020A73E55DB40313E59964016003ED
:1009DC00020A73755D04F562F563020A73E55DB492
:1009EC000428E59964FE600BC3E5639408E5629402
:1009FC00004004D20580700563E563AE62700205A9
:100A0C0062142400F58274008041E55DB4050FE5A5
:100A1C009964017052755D06F551F5528049E55D9A
:100A2C00B40630E59964FE600DC3E55294A1E5511E
:100A3C00648094804004D200802D0552E552AE5162
:100A4C0070020551142434F58274013EF583E59946
:100A5C00F08014E55DB4080FE599B4010A755D09E1
:100A6C008005309902C299D007D006D0D0D082D060
:040A7C0083D0E03211
:03004300020B505D
:100B5000C0E0C0F0C083C082C0D075D000C000C06B
:100B600001C002C003C004C005C006C007E59A303A
:100B7000E063539AFEE55D64026006E55D6407701C
:100B800054E55F455E7015E59BB4F00E755E00752B
:100B90005F01755300755400803B801AE55F640166
:100BA000455E7031E59BB4FE15E55DB40203120E9F
:100BB000C6D203755D00755E00755F008017055431
:100BC000E554AE53700205531424D5F58274013EEA
:100BD000F583E59BF0E59A30E103539AFDD007D009
:100BE00006D005D004D003D002D001D000D0D0D0A0
:080BF00082D083D0F0D0E03286
:08134700E49001D5F0A3F022AF
:100EC6009001D5E075F003A4F564120D28C2ACD2EA
:100ED600B67599F03099FDC299E4FFFE740B2FF5B3
:100EE60082E43403F583E0F5993099FDC2990FBF8A
:100EF60000010EEF64034E70E3E4FEFFE564240296
:100F0600FDE433FCC3EF9DEE9C501974D52FF5829A
:100F160074013EF583E0F5993099FDC2990FBF0043
:100F2600010E80D87599FE3099FDC299C2B6D2AC31
:010F36002298
:03000B000211E5FA
:1011E500C0E0C0F0C083C082C0D075D008758AD772
:1011F500758CFD121356200408055CE55C7002052C
:0C1205005BD0D0D082D083D0F0D0E0329B
:0300030002109850
:10109800C0E0C0F0C083C082C0D075D000C000C01E
:1010A80001C002C003C004C005C006C007121181F8
:1010B800D007D006D005D004D003D002D001D0008C
:0B10C800D0D0D082D083D0F0D0E03236
:100F3700C2B6E4F55DF55EF55F12134F7598504341
:100F47008E40538EFE53890F758BE0758DFEC2ABB5
:100F5700D28E759A50438E0475D7E075D6FE438EB0
:100F67001075AF01538E7F5389F0438901758AD776
:100F7700758CFDC28DD2A9D28CD288D2A8120FE46B
:0B0F870075B71075B810D2ACD2AF22C5
:0E0F9200C20A12110E300A04C2B48002D2B498
:100FA000751078E4F511757304F572F571F570F547
:100FB00074757500757610FFFEFDFC120BF8E47574
:100FC0007304F572F571F570F57475750075761129
:100FD000FFFEFDFC120E41E510B51104C2B4800203
:020FE000D2B489
:020FE20080FE8F
:10080D00E4F569F56AF56BD201757302F572F57150
:10081D00F570F57475750075764D7F04FEFDFC124F
:10082D000E41E54E454D600AE54EB4FF0CE54DB465
:10083D00FF07E4F54DF54E8025D3E54E941EE54DAD
:10084D009400401AE4757302F572F571F570F57444
:10085D0075750075764D7F04FEFDFC020BF8900159
:10086D00D5E075F003A4F555D394004002B2B5E57B
:10087D0055D394005003020959120D28E4F56974FB
:10088D000B2569F582E43403F583E0FF056BE56B19
:10089D00AC6A7002056A142408F58274003CF58375
:1008AD00EFF00569E569B403D6E4F569E555240271
:1008BD00FFE433FEC3E5699FEE6480F874809850C1
:1008CD002774D52569F582E43401F583E0FF056BC6
:1008DD00E56BAC6A7002056A142408F58274003C5D
:1008ED00F583EFF0056980C4056BE56BAE6A7002A8
:1008FD00056A142408F58274003EF58374FFF0AE8A
:10090D004DAF4E7C017D2C120AD8E42FFFEE340141
:10091D00FEE41CFD75732C757201F571F57075741F
:10092D0001757500757608120BF8054EE54E7002CF
:10093D00054DE4757302F572F571F570F574757505
:0E094D000075764D7F04FEFDFC120BF8C20112
:01095B002279
:1003CE00E4F567F568F54DF54E757302F572F57146
:1003DE00F570F57475750075764D7F04FEFDFC1293
:1003EE000BF8C2B4C2B5121314120F3712132A121D
:1003FE00130830004CC2A27F8012131FE4F565F57E
:10040E0066900134E075F002A4FFD3E5669FE565C2
:10041E0095F0502174342566F582E43401F583E0BD
:10042E00FF12131F7F057E001213350566E56670F9
:10043E00D0056580CC7FFE12131FD2A2E4F55DC2FB
:10044E00003005447B017A007900121211120D283A
:10045E0012127EE4F565F566AF6674162FF582E42A
:10046E003403F583E0FE741C2FF582E43403F58328
:10047E00EEF00566E566700205656406456570D8A2
:10048E00121148E4F55DC205E55D64097068D2B6E7
:10049E00C2AC75732C757201F571F57075740175BA
:1004AE007500757608FF7E01FDFC120E41E4F565C0
:1004BE00F56674082566F58274003565F583E0F4FB
:1004CE006026C3E566942CE5659401501B0566E530
:1004DE0066AE6570020565142408F58274003EF55B
:1004EE0083E0FF12133F80CA7FFE12133FD2ACC2CD
:1004FE00B6B2B4E4F55D2003030205D712127E9066
:10050E0001D6E0FF9001D5E0FE90031CB5071C74E8
:10051E000CF09001D6E0FD75F00A84900320F0ED0A
:10052E0075F00A84A3E5F0F00205D2740EF0EFFD2B
:10053E00EEC39DFFE49400FE7C007D03120AD8EF0B
:10054E0024FFF561EE34FFF560FE74D62561F58269
:10055E0074013EF583E075F080A4FFAEF074D725EC
:10056E0061F58274013560F583E02FF550EC3EF5B0
:10057E004FFEAF507C037DE8120AEA90031EEFF0A7
:10058E00AE4FAF507C037DE8120AEA7E007F64CF47
:10059E00CDCFCECCCE120AEAA3EFF0AE4FAF507C49
:1005AE00007D64120AEA7E007F0ACFCDCFCECCCE7C
:1005BE00120AEAA3EFF0AE4FAF507C007D0A120A8A
:1005CE00EAA3EDF0121148C203D3E55C94E0E55BBB
:1005DE00942E50030203FDD204E4F55BF55C120881
:1005EE000D121347755D077FFE12128FC2040203B0
:0105FE00FDFF
:0A133500EF1F70011E144E70F72226
:10002600AD07AC06ED1DAE0470011C4E60097FE8FD
:080036007E0312133580ED2258
:07134F0075CED075CDC02260
:0B131F008FCFE5CD30E7FB75CDC0227D
:0D12E000E4F5CFE5CD30E7FBAFCF75CDC015
:0112ED0022DE
:0C12FB008FCFE5CD30E7FBAFCF75CDC045
:0113070022C3
:10110E00C2927FAB1212FBE4FF1212FBE4FF12122B
:10111E00FBE4FF1212FBE4FF1212FB8F12E4FF122C
:10112E0012FBE4FF1212FBD292E512B49D06BF7FB2
:09113E0003D38001C3920AA20A46
:011147002285
:1012A000C2927F051212FBE4FF1212FBD292EF13DF
:0112B000221B
:0F12D1001212A040FBC2927F061212FBD2922291
:1012C100300A0C1212D1C2927FC71212FBD29222A3
:100E41008F6F8E6E8D6D8C6C300A791212A040FB03
:100E5100C2927F0B1212FBAF6D1212FBAF6E121218
:100E6100FBAF6F1212FBE4FF1212FBAF73AE72AD58
:100E710071AC70EC4D4E4F6049E4FF1212FBAB7444
:100E8100AA75A976EF120AC6E56F2401F56FE4355C
:100E91006EF56EE4356DF56DE4356CF56C74012518
:100EA10076F576E43575F575E57324FFF573E5722E
:100EB10034FFF572E57134FFF571E57034FFF570BB
:050EC10080A9D292227D
:100BF8008F6F8E6E8D6D8C6C200A03020C99AF730B
:100C0800AE72AD71AC70EC4D4E4F7003020C991280
:100C180012D1C2927F021212FBAF6D1212FBAF6E9D
:100C28001212FBAF6F1212FBAF73AE72AD71AC70E4
:100C3800EC4D4E4F6056AB74AA75A976120A80FF28
:100C48001212FBE56F2401F56FE4356EF56EE4359D
:100C58006DF56DE4356CF56C74012576F576E43543
:100C680075F575E57324FFF573E57234FFF572E5E4
:100C78007134FFF571E57034FFF570E56FFFE4FE40
:100C8800FDFCFBFAF9F8C3120B3F709CD292020CE0
:020C9800062232
:03003E00D20A22C1
:1003B30048030E140A06050C37070643030B000017
:0A03C30000460316000000000000D1
:04102100E0FD7F8AE5
:10102500D2A45307FEE4FEEF30E004D2A58002C24D
:10103500A5D2A6C2A6EFC313FF0EBE08EAE4FEEDD5
:1010450030E004D2A58002C2A5D2A6C2A6EDC31384
:07105500FD0EBE08EAC2A473
:01105C002271
:1010D300D2A4430701E4FDEF30E004D2A58002C2AD
:1010E300A5D2A6C2A6EFC313FF0DBD08EAE4FDEE29
:1010F300C313FE30A505430680800353067FD2A6A3
:0A110300C2A60DBD08E9C2A4AF06A4
:01110D0022BF
:100C9A00E4FF740E2FF582E43403F583E0FE75F069
:100CAA000A84FDEE75F00A8474032FF582E4340396
:100CBA00F583E5F0F0EDC454F0FE74032FF582E4F9
:100CCA003403F583E02EF00FBF08C7E4FD7F8E12D0
:100CDA0010257D807F80121025900304E0FD7F8C13
:100CEA00121025A3E0FD7F88121025A3E0FD7F8660
:100CFA0012102590030A121021900307E0FD7F8449
:100D0A00121025A3E0FD7F82121025A3E0FD7F804B
:0E0D1A00121025A31210217D807F8E0210255D
:100D28007F841210D3900303EFF07F821210D3A3B5
:100D3800EFF07F801210D3A3EFF0E4FF74032FF5D8
:100D480082E43403F583E0FEC4540FFDEE540FFE35
:100D5800740B2FF582E43403F583EEF0ED75F00A99
:100D6800A4FE740B2FF582E43403F583E02EF074AF
:100D7800032FF582E43403F583E0C4540FFEEF2516
:100D8800E02416F582E43403F583EEF074032FF5BE
:100D980082E43403F583E0540FFEEF25E02417F5D1
:0C0DA80082E43403F583EEF00FBF0390EB
:010DB400221C
:0B132A00C2A4C2A6E4FD7F80021025D3
:061211008B698A6A896BFB
:10121700E4FFAB69AA6AA96B8F82758300120A99EA
:10122700FE740E2FF582E43403F583EEF00FBF084A
:04123700E1020C9A2A
:03000000020DB539
:0C0DB500787FE4F6D8FD758176020DFC15
:100A8000BB010689828A83E0225002E722BBFE0274
:090A9000E32289828A83E49322A7
:100A9900BB010CE58229F582E5833AF583E0225012
:100AA90006E92582F8E622BBFE06E92582F8E2225C
:0D0AB900E58229F582E5833AF583E4932276
:100AC600BB010689828A83F0225002F722BBFE010F
:020AD600F32209
:100AD800EF8DF0A4A8F0CF8CF0A428CE8DF0A42E32
:020AE800FE22EC
:100AEA00BC000BBE0029EF8DF084FFADF022E4CCF0
:100AFA00F875F008EF2FFFEE33FEEC33FCEE9DECB9
:100B0A00984005FCEE9DFE0FD5F0E9E4CEFD22EDFE
:100B1A00F8F5F0EE8420D21CFEADF075F008EF2F48
:100B2A00FFED33FD4007985006D5F0F222C398FD39
:050B3A000FD5F0EA22D6
:100B3F00EB9FF5F0EA9E42F0E99D42F0E89C45F00C
:010B4F002283
:100DC1000203CEE493A3F8E493A34003F68001F277
:100DD10008DFF48029E493A3F85407240CC8C33333
:100DE100C4540F4420C8834004F456800146F6DF02
:100DF100E4800B0102040810204080900046E47E4C
:100E0100019360BCA3FF543F30E509541FFEE493F6
:100E1100A360010ECF54C025E060A840B8E493A3BD
:100E2100FAE493A3F8E493A3C8C582C8CAC583CAE8
:100E3100F0A3C8C582C8CAC583CADFE9DEE780BEA0
:0103CD00002F
:00000001FF
