:100174003F065B4F666D7D077F6F777C395E7971D3
:100184003D76BF86DBCFE6EDFD87FFEFF7FCB9DEFA
:0C019400F9F1BDF6EFDFBF7FFEFDFBF7C9
:1001A0000410030C30C0011E08011C00011D004F8B
:1001B000000000000000000000000000000000003F
:0101C000003E
:0800DA008B1F8A2089218D2271
:1000E200E4F523E523C39522505AE4F580E52390F5
:1000F200019893F5A07FF47E01120262E523AB1F03
:10010200AA20A921B51E0DF5827583001201479020
:100112000186800C85238275830012014790017449
:1001220093F525E4F52474102524F8E65525F58089
:100132007FC87E001202620524E524C3940440E6CF
:040142000523809F72
:010146002296
:03004B00020003AD
:10000300C0E0C083C082C0D075D00875CDC0AFCF6B
:10001300EF24026009247E700A751D008015751C8B
:100023000180107400251DF582E43400F583E5CFCB
:0F003300F0051D75CF00D0D0D082D083D0E03241
:10021A00E4F5937594FFF58075A0FF12024AD2AFF8
:01022A0022B1
:1001E300E4FF74002FF582E43400F583E0FE741419
:0E01F3002FF8A6060FBF08EA900008E0F51EE0
:0102010022DA
:10022B007F08900000E4F0A3DFFC1201E3751E08C9
:01023B0022A0
:1001C20012021A12022BE51CB40109E4F51D1201F8
:1001D200E3E4F51C7B007A0079147D081200DA80D2
:0101E200E537
:0A026200EF1F70011E144E70F7220A
:10020200AD07AC06ED1DAE0470011C4E60097FE81F
:080212007E0312026280ED225E
:0D024A00E4F5CF75CDC075CE4043AF022264
:0B0257008FCFE5CD30E7FB75CDC02256
:0D023C00E4F5CFE5CD30E7FBAFCF75CDC0C9
:010249002292
:0300000002004EAD
:0C004E00787FE4F6D8FD7581250200954E
:10014700BB010CE58229F582E5833AF583E022506D
:1001570006E92582F8E622BBFE06E92582F8E222B7
:0D016700E58229F582E5833AF583E49322D1
:10005A000201C2E493A3F8E493A34003F68001F2F9
:10006A0008DFF48029E493A3F85407240CC8C333A7
:10007A00C4540F4420C8834004F456800146F6DF76
:10008A00E4800B01020408102040809001A0E47E65
:10009A00019360BCA3FF543F30E509541FFEE4936B
:1000AA00A360010ECF54C025E060A840B8E493A332
:1000BA00FAE493A3F8E493A3C8C582C8CAC583CA5D
:1000CA00F0A3C8C582C8CAC583CADFE9DEE780BE15
:0101C100003D
:00000001FF
